:100000000C942A000C9447000C9447000C94470071
:100010000C9447000C9447000C9447000C94470044
:100020000C9447000C9447000C9447000C94470034
:100030000C9447000C9447000C9447000C94470024
:100040000C9407060C9447000C9447000C9447004E
:100050000C94470011241FBECFE5D8E0DEBFCDBF12
:1000600010E0A0E6B0E0E0EAFCE002C005900D92EE
:10007000AE3FB107D9F711E0AEEFB0E001C01D927D
:10008000A336B107E1F70E94A1050C944E060C942B
:10009000000017B83E9A3F98309A319A329A379AB0
:1000A000339A8FB780688FBF089597B1907F97B9C3
:1000B00097B1982B97B9369A089524B135B1C901F3
:1000C0000895EF92FF921F93DF93CF93CDB7DEB7E2
:1000D00060970FB6F894DEBF0FBECDBFDE0111965C
:1000E000E5E9F0E080E101900D928150E1F740E612
:1000F00050E010E0BE016F5F7F4F91E0E92EF12CE0
:10010000912F9770A12FA695A695A695FA018081AB
:10011000813009F1813020F0833009F04BC02DC0CF
:10012000B0E0FD01EE0FFF1FE60FF71F0190F08119
:10013000E02D2E2D01C0220F9A95EAF7922F90956F
:100140008081892380831496AA0FBB1FA60FB71F37
:10015000ED91FC910FC0EA2FF0E0EE0FFF1FE60FCC
:10016000F71F0190F081E02D970102C0220F331F8D
:100170009A95E2F78081822B1CC0B0E0FD01EE0F62
:10018000FF1FE60FF71F0190F081E02D970102C0DD
:10019000220F331F9A95E2F7209580818223808376
:1001A0001496AA0FBB1FA60FB71FED91FC9180817B
:1001B000822380831F5F4F5F5F4F103209F0A0CF13
:1001C00060960FB6F894DEBF0FBECDBFCF91DF9122
:1001D0001F91FF90EF900895DF93CF93CDB7DEB7D7
:1001E00028970FB6F894DEBF0FBECDBFFE01319643
:1001F000ADE8B0E098E00D9001929150E1F7282F22
:100200002770869586958695662319F0613041F5AD
:1002100014C0E82FF0E0EE0FFF1FEC0FFD1F018070
:10022000F281E02D81E090E002C0880F991F2A95AD
:10023000E2F780952081282312C0E82FF0E0EE0F2E
:10024000FF1FEC0FFD1F0180F281E02D81E090E0A7
:1002500002C0880F991F2A95E2F72081282B20835E
:1002600028960FB6F894DEBF0FBECDBFCF91DF91B9
:100270000895813049F0813028F0823039F08330A0
:1002800041F406C06BBB089568BB089565BB089533
:1002900062BB0895DF93CF93CDB7DEB728970FB633
:1002A000F894DEBF0FBECDBF282FDE011196E5E822
:1002B000F0E088E001900D928150E1F7E22FE695A1
:1002C000E695E695F0E0EE0FFF1FEC0FFD1F0180B5
:1002D000F281E02D808190E0277002C0959587958E
:1002E0002A95E2F7817028960FB6F894DEBF0FBE0C
:1002F000CDBFCF91DF910895813051F0813030F042
:10030000823041F0833041F080E0089589B3089550
:1003100086B3089583B3089580B30895982F8BB75B
:1003200080688BBF8BB780648BBF992349F485B7F6
:100330008E7F85BF85B7826085BF85B78B7F0AC0FA
:10034000913061F485B7816085BF85B7826085BFD4
:1003500085B7846085BF85B7886085BF8FB78068A3
:100360008FBF08958FB78F778FBF8BB78F778BBF76
:100370008BB78F7B8BBF0895689A6998709A6D9A36
:100380006B986A986C9A6E9A0895689A6998709AB0
:100390006D9A6B986A986C986E9A08958FB9779B4E
:1003A000FECF0895779BFECF8FB1089583B7886005
:1003B00083BF83B7806483BF83B78F7E83BF83B7D8
:1003C000806283BF89B7826089BF8FB780688FBF23
:1003D00083B7816083BF83B78D7F83BF83B784601A
:1003E00083BF08958FB58E7F8FBD8FB58D7F8FBDF5
:1003F0008EB5877F8EBD8EB58F7E8EBD8FB58F7E7D
:100400008FBD8FB58F7D8FBD8FB58F7B8FBD8FB526
:100410008F778FBD89B7846089BF8FB780688FBFA2
:100420008EB581608EBD8EB58D7F8EBD8EB584609C
:100430008EBD089583E080B90898099886B78460D6
:1004400086BF0895880F82B9109883E080B9089814
:10045000099886B7806486BF86B7846086BF06B673
:1004600007FEFDCF0895982F86B7806286BF86B7B6
:10047000846086BF86B7806886BF06B607FEFDCF5C
:10048000990F962B93B986B78F7D86BF86B7806804
:1004900086BF86B7846086BF06B607FEFDCF089587
:1004A00086B7806186BF86B7846086BF86B780685E
:1004B00086BF0895982F86B7806286BF86B784600E
:1004C00086BF86B7806886BF06B607FEFDCF990F48
:1004D000962B93B986B78F7D86BF86B7806886BF17
:1004E00086B7846086BF06B607FEFDCF089586B73F
:1004F000806486BF86B7846086BF86B7806886BF03
:1005000006B607FEFDCF88B391E0892788BB83B18B
:10051000089586B78F7B86BF86B7846086BF86B70F
:10052000806886BF06B607FEFDCF83B1089583B904
:1005300086B7806486BF86B7846086BF86B78068CA
:1005400086BF06B607FEFDCF089583B986B78F7BB9
:1005500086BF86B7846086BF86B7806886BF06B6CA
:1005600007FEFDCF089581B10895EF92FF921F938A
:10057000CF93DF93EC0110E080E9E82E81E0F82EC4
:100580000AC00E94970288EE93E0F7013197F1F7D5
:100590000197D9F71F5FFE01E10FF11D80818823CC
:1005A00081F70E949702DF91CF911F91FF90EF900A
:1005B0000895CF93DF930E947702CEEFD0E005C07D
:1005C00089930E9415040E947702882321F091E00C
:1005D000C033D907A9F78EEF90E0DF91CF9108954E
:1005E00087E689B980B5826080BD80B5846080BDB2
:1005F000529880B5886080BD80B58F7E80BD80B503
:100600008F7D80BD80B58F7B80BD0895539A5D9BA3
:10061000FECF8CB90895549A5F9BFECF8BB391E0C7
:1006200089278BBB8CB10895549A579A8FB78068ED
:100630008FBF0895EF92FF920F931F93CF93DF9395
:10064000062FEC0110E080E4E82E8CE9F82E07C0BC
:1006500089910E940603C7010197F1F71F5F1017E8
:10066000B8F3DF91CF911F910F91FF90EF90089514
:10067000CF93DF930E940B0380933001C0E3D1E05E
:100680000BC090E00E9415040E940B038983219601
:1006900081E0C236D80719F08881882391F780E37A
:1006A00091E0DF91CF91089581B5816081BD81B5E1
:1006B000826081BD81B5846081BD81B5886081BD66
:1006C000089581B5886081BD81B5806181BD81B5A6
:1006D000877F81BD0895A8950895DF92EF92FF92DC
:1006E0000F931F93CF93DF9384E061E00E94EC00AF
:1006F00085E061E00E94EC0086E061E00E94EC0091
:1007000087E061E00E94EC003DE6D32E00E010E0BF
:1007100024E0E22EE00E8E2D60E00E94EC00E80165
:10072000CC0FDD1FCC0FDD1FCB55DF4F8AE1F82E3C
:100730008F2D0E944A018823A1F498818091800026
:10074000891731F4809162018F5F8093620102C04A
:100750001092620180916201853009F4D92E909344
:100760008000F39421968EE1F81611F78E2D61E04A
:100770000E94EC000F5F1F4F0430110549F68D2DCC
:10078000DF91CF911F910F91FF90EF90DF9008952F
:10079000DF92EF92FF920F931F93CF93DF9384E04A
:1007A00061E00E94EC0085E061E00E94EC0086E0E0
:1007B00061E00E94EC0087E061E00E94EC007DE6D1
:1007C000D72E00E010E064E0E62EE00E8E2D60E013
:1007D0000E94EC00E801CC0FDD1FCC0FDD1FCB55D4
:1007E000DF4F4AE1F42E8F2D0E944A01882331F415
:1007F000D8808F2D0E944A018823D9F3F394219643
:100800008EE1F81681F78E2D61E00E94EC000F5FFB
:100810001F4F04301105B9F68D2DDF91CF911F9137
:100820000F91FF90EF90DF900895EF92FF921F934A
:10083000182F81E061E00E94EC0081E160E00E94FD
:10084000EC0082E061E00E94EC0080E00E944A013E
:10085000682F6660812F86958877682B80E00E94DC
:10086000390182E060E00E94EC0080E4E82E8FE134
:10087000F82EC7010197F1F782E061E00E94EC00D9
:1008800080EA9FE00197F1F780E00E944A01682F1B
:100890006660110F110F110F1877612B80E00E9415
:1008A000390182E060E00E94EC00C7010197F1F796
:1008B00082E061E00E94EC0080E29EE40197F1F7A3
:1008C0001F91FF90EF9008950F931F93CF93DF93A5
:1008D000062FEC0110E004C089910E9415041F5FEF
:1008E0001017D0F380E49FE10197F1F7DF91CF91EA
:1008F0001F910F910895EF92FF921F93182F81E09F
:1009000060E00E94EC0081E160E00E94EC0082E087
:1009100061E00E94EC0080E00E944A01682F646060
:10092000812F86958877682B80E00E94390182E0CC
:1009300060E00E94EC0090E4E92E9FE1F92EC701EF
:100940000197F1F782E061E00E94EC0080EA9FE00D
:100950000197F1F780E00E944A01682F6460110F4F
:10096000110F110F1877612B80E00E94390182E08E
:1009700060E00E94EC00C7010197F1F782E061E0BE
:100980000E94EC0080E29EE40197F1F71F91FF9036
:10099000EF900895603170F4882319F0813051F49C
:1009A00005C0862F80580E947B040895862F8054AE
:1009B0000E947B0408950F931F93CF93DF93182F0A
:1009C000062F6031E0F48230D0F480E40E947B0492
:1009D000C5EBD0E089910E94150480E0C53FD8079F
:1009E000C9F780E80E947B04812F602F0E94CA040F
:1009F00010E0812F0E9415041F5F1830D1F7DF919E
:100A0000CF911F910F9108950F931F938CE291E066
:100A100020E931E0F9013197F1F70197D9F782E048
:100A20000E947B0400EA1FE0C8010197F1F788E209
:100A30000E947B04C8010197F1F78CE00E947B04BF
:100A400081E00E947B0486E00E947B04C80101973C
:100A5000F1F71F910F910895EF92FF921F93CF939B
:100A6000DF93C5EFD0E080E4E82E8CE9F82E1991F1
:100A7000612F61708CE10E94EC00612F66956170BE
:100A80008DE10E94EC0016951695612F61708EE144
:100A90000E94EC00169511708FE1612F0E94EC000E
:100AA000C7010197F1F780E0CD3FD80701F7DF914B
:100AB000CF911F91FF90EF9008950F931F938CE1BA
:100AC00061E00E94EC0000E41CE9C8010197F1F725
:100AD0008CE160E00E94EC008DE161E00E94EC009E
:100AE000C8010197F1F78DE160E00E94EC008EE112
:100AF00061E00E94EC00C8010197F1F78EE160E02F
:100B00000E94EC008FE161E00E94EC00C8010197B7
:100B1000F1F78FE160E00E94EC001F910F910895C2
:100B20008CE160E00E94EC008DE160E00E94EC004E
:100B30008EE160E00E94EC008FE160E00E94EC003A
:100B400008950E9461000E94490080E00E945500C3
:100B50002091810030918200B901660F771F660FE6
:100B6000771F620F731F80E090E028EE33E040E0D3
:100B700050E00E942F062AE0969587957795679515
:100B80002A95D1F79B01709384006093830045E020
:100B90006D3D740738F481E061E00E94EC0082E072
:100BA00060E00CC0CB018C5D95408D5D954058F4A4
:100BB00081E060E00E94EC0082E061E00E94EC00D5
:100BC00083E060E00FC0285B3B40215D374060F46C
:100BD00081E060E00E94EC0082E060E00E94EC00B6
:100BE00083E061E00E94EC0081E0609181000E945E
:100BF000390160918200617086E00E94EC00609192
:100C000082006695617087E00E94EC009ECF1F9283
:100C10000F920FB60F9211242F933F934F935F9330
:100C20006F937F938F939F93AF93BF93EF93FF93B4
:100C30000E945D009093820080938100FF91EF916C
:100C4000BF91AF919F918F917F916F915F914F91E4
:100C50003F912F910F900FBE0F901F901895629F9C
:100C6000D001739FF001829FE00DF11D649FE00DA4
:100C7000F11D929FF00D839FF00D749FF00D659F05
:100C8000F00D9927729FB00DE11DF91F639FB00D04
:100C9000E11DF91FBD01CF0111240895F894FFCF84
:100CA0000301010101010101010101010101010132
:100CB0000101010101010103030100000101010122
:100CC0006D0104030039003600330030003B00386A
:100CD00000350032003A003700340031003B003864
:100CE00000350032000708092F0405062A01020317
:100CF0002D63003D2B0000000000000000000000FC
:100D00000000171C0000000007051F000000000085
:100D1000101013060C00001008041E00000000064E
:100D200009090F000000000401011F00000C1C0055
:0E0D300008080800000901030206040C080070
:00000001FF
