:100000000C942A000C9447000C9447000C94470071
:100010000C9447000C9447000C9447000C94470044
:100020000C9447000C9447000C9447000C94470034
:100030000C9447000C9447000C9447000C94470024
:100040000C9447000C9447000C9447000C94470014
:100050000C94470011241FBECFE5D8E0DEBFCDBF12
:1000600012E0A0E6B0E0EEE1F5E602C005900D92E8
:10007000A03FB107D9F713E0A0EFB2E001C01D9295
:10008000AA36B107E1F70E943C2D0C948D320C94F6
:100090000000EF92FF920F931F937B018C0120E0F1
:1000A00030E040E05FE40E942E1088238CF0C8010D
:1000B000B70120E030E040E05FE40E94A60E0E941D
:1000C0008E109B01AC01205030404040504806C08B
:1000D000C801B7010E948E109B01AC01B901CA0191
:1000E0001F910F91FF90EF900895AEE5B0E0EBE720
:1000F000F0E00C945632A8E04E010894811C911C4B
:10010000F4016A2E11926A94E9F729833A834B83AA
:100110005C836D837E838F839887CE010996FC0173
:100120001192AA95E9F7A986BA86CB86DC86ED8678
:10013000FE860F87188B29843A844B845C84ED8477
:10014000FE840F85188969807A808B809C806DA6DB
:100150007EA68FA698AA6D807E808F809884E114F9
:10016000F1040105110509F0B3C36214730484049A
:10017000950408F03DC100E0201600E0300601E0E3
:10018000400600E0500688F41FEF211631044104B8
:10019000510439F030F048E0E42EF12C012D112DFE
:1001A00018C0EE24FF24870114C020E0221620E0AE
:1001B000320620E0420621E0520630F038E1E32E1C
:1001C000F12C012D112D05C020E1E22EF12C012D85
:1001D000112DD201C1010E2C04C0B695A79597959B
:1001E00087950A94D2F7875B9E4FDC012C9180E2C1
:1001F00090E0A0E0B0E08E199F09A00BB10B7C014C
:100200008D01E21AF10801091109E114F104010557
:100210001105A1F10E2C04C0220C331C441C551CEA
:100220000A94D2F7A40193010E2C04C0220F331FAD
:10023000441F551F0A94D2F780E290E08E199F095F
:100240006DA47EA48FA498A804C0969487947794F4
:1002500067948A95D2F7622A732A842A952AADA4D4
:10026000BEA4CFA4D8A804C0AA0CBB1CCC1CDD1C07
:10027000EA94D2F7ADA6BEA6CFA6D8AA6201EE2414
:10028000FF24CDAADEAAEFAAF8AE92018101207068
:10029000307009AF1AAF2BAF3CAFC401B301A70157
:1002A00096010E9434327B018C01C401B3012DA957
:1002B0003EA94FA958AD0E943432C901DA013C0170
:1002C0004D01C401B30129AD3AAD4BAD5CAD0E9407
:1002D00015329B01AC018701FF24EE24ADA4BEA41E
:1002E000CFA4D8A8C601AA27BB2757016801A82A0E
:1002F000B92ACA2ADB2AA216B306C406D506E0F438
:1003000008946108710881089108A20CB31CC41CF0
:10031000D51CA214B304C404D50470F0A216B3060D
:10032000C406D50648F4089461087108810891084C
:10033000A20CB31CC41CD51CA21AB30AC40AD50A49
:10034000C601B5012DA93EA94FA958AD0E9434326E
:100350007B018C01C601B5012DA93EA94FA958AD5D
:100360000E943432C901DA015C016D01C601B50198
:1003700029AD3AAD4BAD5CAD0E9415329B01AC018D
:100380008701FF24EE248DA59EA5AFA5B8A9A07076
:10039000B070E82AF92A0A2B1B2BE216F306040791
:1003A0001507C0F40894A108B108C108D108E20CEF
:1003B000F31C041D151DE214F3040405150550F08B
:1003C000E216F3060407150728F40894A108B108FB
:1003D000C108D108D3019927882786017501E82A29
:1003E000F92A0A2B1B2BE9AAFAAA0BAB1CABCFC428
:1003F000211431044104510471F461E070E080E0A3
:1004000090E020E030E040E050E00E943432C9014A
:10041000DA011C012D0100E0201600E0300601E0A9
:10042000400600E0500688F41FEF21163104410415
:10043000510431F028F048E050E060E070E017C06F
:1004400040E050E060E070E012C020E0221620E0C2
:10045000320620E0420621E0520628F048E150E052
:1004600060E070E004C040E150E060E070E0D20184
:10047000C101042E04C0B695A795979587950A9457
:10048000D2F7875B9E4FDC012C91E0E2EE2EF12C3F
:10049000012D112DD801C701841B950BA60BB70B9D
:1004A000821B9109A109B1090097A105B10561F469
:1004B00064015301A218B308C408D50831E0632EC3
:1004C000712C812C912C1EC16F968FAF6F97082EC7
:1004D00004C0220C331C441C551C0A94D2F7EE2D88
:1004E000E81B640153010E2E04C0D694C794B79440
:1004F000A7940A94D2F7A40193016F960FAC6F975B
:1005000004C0220F331F441F551F0A94D2F76DA455
:100510007EA48FA498A80E2E04C0969487947794F6
:1005200067940A94D2F784017301E22AF32A042B18
:10053000152BE9A6FAA60BA71CA73201882499243B
:10054000920181012070307021960CAF1DAF2EAF4B
:100550003FAF2197C601B501A40193010E94343237
:100560007B018C01C601B501A40193010E943432C4
:10057000C901DA0125968CAF9DAFAEAFBFAF25970D
:10058000BC01CD0121962CAD3DAD4EAD5FAD2197A7
:100590000E9415329B01AC018701FF24EE24A9A41F
:1005A000BAA4CBA4DCA4C601AA27BB275C016D01B9
:1005B000AE28BF28C02AD12AA216B306C406D50683
:1005C00060F525966CAD7DAD8EAD9FAD25976150E4
:1005D00070408040904025966CAF7DAF8EAF9FAF4E
:1005E0002597A20CB31CC41CD51CA214B304C404CC
:1005F000D50498F0A216B306C406D50670F461506F
:1006000070408040904025966CAF7DAF8EAF9FAF1D
:100610002597A20CB31CC41CD51CA21AB30AC40A89
:10062000D50AC601B501A40193010E9434327B01B1
:100630008C01C601B501A40193010E943432C901A5
:10064000DA013C014D01C401B30121962CAD3DAD51
:100650004EAD5FAD21970E9415329B01AC01870121
:10066000FF24EE2489A59AA5ABA5BCA5A070B07007
:1006700057016801A82AB92ACA2ADB2AA216B3069A
:10068000C406D506E0F40894610871088108910851
:10069000A20CB31CC41CD51CA214B304C404D504FE
:1006A00070F0A216B306C406D50648F40894610893
:1006B000710881089108A20CB31CC41CD51C8DA51F
:1006C0009EA5AFA5B8A96F960FAC6F9704C0880F11
:1006D000991FAA1FBB1F0A94D2F78DA79EA7AFA789
:1006E000B8ABA21AB30AC40AD50A2596ECACFDAC85
:1006F0000EAD1FAD2597D70199278827682A792A3B
:100700008A2A9B2A82012227332729960CAF1DAF04
:100710002EAF3FAF2997A2019101407050702D96E6
:100720002CAF3DAF4EAF5FAF2D97C601B5012996F7
:100730002CAD3DAD4EAD5FAD29970E9434327B01AB
:100740008C01C601B50129962CAD3DAD4EAD5FAD16
:1007500029970E943432C901DA0161968CAF9DAFAE
:10076000AEAFBFAF6197BC01CD012D962CAD3DADB5
:100770004EAD5FAD2D970E9415329B01AC018701F4
:10078000FF24EE24ADA4BEA4CFA4D8A8C601AA27F6
:10079000BB2757016801A82AB92ACA2ADB2AA21650
:1007A000B306C406D50660F561966CAD7DAD8EAD21
:1007B0009FAD6197615070408040904061966CAFF2
:1007C0007DAF8EAF9FAF6197A20CB31CC41CD51C2C
:1007D000A214B304C404D50498F0A216B306C40648
:1007E000D50670F4615070408040904061966CAFC7
:1007F0007DAF8EAF9FAF6197A20CB31CC41CD51CFC
:10080000A21AB30AC40AD50AC601B50129962CADAD
:100810003DAD4EAD5FAD29970E9434327B018C0116
:10082000C601B50129962CAD3DAD4EAD5FAD299702
:100830000E943432C901DA015C016D01C601B501C3
:100840002D962CAD3DAD4EAD5FAD2D970E9415326E
:100850009B01AC018701FF24EE248DA59EA5AFA5C9
:10086000B8A9A070B070E82AF92A0A2B1B2BE2164F
:10087000F30604071507C0F40894A108B108C108DD
:10088000D108E20CF31C041D151DE214F304040549
:10089000150550F0E216F3060407150728F408942E
:1008A000A108B108C108D1086196ECACFDAC0EAD51
:1008B0001FAD6197D7019927882796018501082BDD
:1008C000192B2A2B3B2B09AB1AAB2BAB3CAB62C2CF
:1008D0006E147F048006910608F451C220E0E216EF
:1008E00020E0F20621E0020720E0120788F43FEF43
:1008F000E316F1040105110531F028F048E050E05D
:1009000060E070E017C040E050E060E070E012C0CE
:1009100040E0E41640E0F40640E0040741E014073C
:1009200028F048E150E060E070E004C040E150E0B1
:1009300060E070E0D801C701042E04C0B695A79509
:10094000979587950A94D2F7875B9E4FDC012C918F
:1009500030E2A32EB12CC12CD12CD601C501841BB1
:10096000950BA60BB70B821B9109A109B109009742
:10097000A105B10589F4E614F7040805190508F482
:10098000F2C16DA47EA48FA498A862147304840499
:10099000950408F0E8C1F3C16E968FAF6E97082EEC
:1009A00004C0EE0CFF1C001F111F0A94D2F76A2D21
:1009B000681BD201C101062E04C0B695A795979574
:1009C00087950A94D2F75C016D01AE28BF28C02A32
:1009D000D12AADA2BEA2CFA2D8A6720161016E96A5
:1009E0000FAC6E9704C0CC0CDD1CEE1CFF1C0A94EF
:1009F000D2F7C9A2DAA2EBA2FCA264015301062E2F
:100A000004C0D694C794B794A7940A94D2F7D4019B
:100A1000C3016E960FAC6E9704C0880F991FAA1F72
:100A2000BB1F0A94D2F7EDA4FEA40FA518A904C019
:100A300016950795F794E7946A95D2F73701480120
:100A4000682A792A8A2A9B2A6D8E7E8E8F8E98A29A
:100A5000EDA0FEA00FA118A53801882499249801C3
:100A600087012070307065960CAF1DAF2EAF3FAF81
:100A70006597C601B501A40193010E9434327B0140
:100A80008C01C601B501A40193010E943432C90151
:100A9000DA011C012D01C201B10165962CAD3DADFD
:100AA0004EAD5FAD65970E9415329B01AC01870189
:100AB000FF24EE24AD8CBE8CCF8CD8A0C601AA2713
:100AC000BB2757016801A82AB92ACA2ADB2AA2161D
:100AD000B306C406D50600F508942108310841087C
:100AE0005108EDA0FEA00FA118A5AE0CBF1CC01EA2
:100AF000D11EAE14BF04C006D10670F0A216B30614
:100B0000C406D50648F40894210831084108510864
:100B1000AE0CBF1CC01ED11EA21AB30AC40AD50A4D
:100B2000C601B501A40193010E9434327B018C01FE
:100B3000C601B501A40193010E943432C901DA0152
:100B40003C014D01C401B30165962CAD3DAD4EADE8
:100B50005FAD65970E9415329B01AC018701FF24B0
:100B6000EE248D8D9E8DAF8DB8A1A070B070570111
:100B70006801A82AB92ACA2ADB2AA216B306C40623
:100B8000D50600F5089461087108810891086DA1E7
:100B90007EA18FA198A5A60EB71EC81ED91EA616A7
:100BA000B706C806D90670F0A216B306C406D50665
:100BB00048F408946108710881089108A60EB71ED0
:100BC000C81ED91ED601C501821B930BA40BB50B01
:100BD000898F9A8FAB8FBC8FD101992788276401A9
:100BE0005301A82AB92ACA2ADB2AA9AABAAACBAAD7
:100BF000DCAA860175012FEF3FEF40E050E0E222D2
:100C0000F32204231523A601662777276D964CAFA0
:100C10005DAF6EAF7FAF6D97A9A0BAA0CBA0DCA0EF
:100C20006FEF7FEF80E090E0A622B722C822D922A2
:100C300089A19AA1ABA1BCA11D0144245524C801DE
:100C4000B701A60195010E94153269966CAF7DAF80
:100C50008EAF9FAF6997C801B701A20191010E94B1
:100C600015323B014C016D966CAD7DAD8EAD9FADE7
:100C70006D97A60195010E9415327B018C016D963E
:100C80006CAD7DAD8EAD9FAD6D97A20191010E94BF
:100C900015325B016C01A8019701260D371D481D17
:100CA000591D69966CAC7DAC8EAC9FAC6997C40144
:100CB000AA27BB27280F391F4A1F5B1F2E153F0588
:100CC0004007510748F4E12CF12C61E0062F112D6B
:100CD000AE0CBF1CC01ED11ECA01AA27BB27BC0177
:100CE000CD016A0D7B1D8C1D9D1D698C7A8C8B8CB2
:100CF0009C8C661677068806990640F1661577057E
:100D00008805990509F043C0D90199278827699674
:100D10002CAD3DAD4EAD5FAD699740705070820F08
:100D2000931FA41FB51F2DA53EA54FA558A96E96CC
:100D30000FAC6E9704C0220F331F441F551F0A9437
:100D4000D2F7281739074A075B0708F509A91AA936
:100D50002BA93CA9015010402040304009AB1AABF0
:100D60002BAB3CAB14C066247724430121E030E078
:100D700040E050E029AB3AAB4BAB5CAB0BC0662418
:100D80007724430119AA1AAA1BAA1CAA03C0662425
:100D900077244301FE01719688E0DF011D928A9558
:100DA000E9F7A9A8BAA8CBA8DCA8A98ABA8ACB8AED
:100DB000DC8A6D8A7E8A8F8A988E29A93A894B8926
:100DC0005C89662D7E898F89988DC25ADF4FE2E15A
:100DD0000C947232ABE5B0E0E0EFF6E00C945632E2
:100DE000A8E04E010894811C911CF4016A2E119216
:100DF0006A94E9F729833A834B835C836D837E830E
:100E00008F839887CE010996FC011192AA95E9F784
:100E1000A986BA86CB86DC86ED86FE860F87188B80
:100E200029843A844B845C84AD84BE84CF84D88882
:100E300029813A814B815C8169962FAF69976A96C7
:100E40003FAF6A976B964FAF6B976C965FAF6C979F
:100E50006C966CAC7DAC8EAC9FAC6C9769AA7AAA90
:100E60008BAA9CAA6D817E818F8198853B014C0164
:100E70006DAA7EAA8FAA98AEA114B104C104D104B0
:100E800009F004C3621473048404950408F000C1DB
:100E900000E0201600E0300601E0400600E05006C9
:100EA00088F41FEF211631044104510439F030F069
:100EB00088E0E82EF12C012D112D18C0EE24FF241E
:100EC000870114C040E0241640E0340640E04406A8
:100ED00041E0540630F0B8E1EB2EF12C012D112D3C
:100EE00005C0A0E1EA2EF12C012D112DD201C10186
:100EF0000E2C04C0B695A795979587950A94D2F7BE
:100F0000875B9E4FDC012C9180E290E0A0E0B0E096
:100F10008E199F09A00BB10B5C016D01A21AB108DB
:100F2000C108D108A9AEBAAECBAEDCAEA114B104F3
:100F3000C104D10409F43FC069AD062E04C0220CDF
:100F4000331C441C551C0A94D2F7A4019301062EAD
:100F500004C0220F331F441F551F0A94D2F780E2AA
:100F600090E08A199B096C96CCACDDACEEACFFAC82
:100F70006C9704C0F694E794D794C7948A95D2F7F7
:100F800087017601E22AF32A042B152BEDAAFEAA8B
:100F90000FAB18AF6C968CAD9DADAEADBFAD6C9781
:100FA00004C0880F991FAA1FBB1F6A95D2F789AB8F
:100FB0009AABABABBCAB320188249924B201A1013E
:100FC0006070707021964CAF5DAF6EAF7FAF2197B0
:100FD0006DA97EA98FA998ADA40193010E94343216
:100FE0007B018C016DA97EA98FA998ADA401930105
:100FF0000E943432CA01B90121962CAD3DAD4EADEF
:101000005FAD21970E9415329B01AC018701FF243F
:10101000EE24A9A8BAA8CBA8DCA8C601AA27BB279A
:1010200057016801A82AB92ACA2ADB2AA216B306E0
:10103000C406D50690F4A20CB31CC41CD51CA21483
:10104000B304C404D50448F0A216B306C406D506FA
:1010500020F4A20CB31CC41CD51CA21AB30AC40AE7
:10106000D50AC601B501A40193010E9434327B0167
:101070008C01C601B501A40193010E943432CA015A
:10108000B90121962CAD3DAD4EAD5FAD2197BAC1F2
:10109000211431044104510471F461E070E080E0F6
:1010A00090E020E030E040E050E00E943432C9019E
:1010B000DA011C012D0100E0201600E0300601E0FD
:1010C000400600E0500688F41FEF21163104410469
:1010D000510439F030F068E0E62EF12C012D112D8D
:1010E00018C0EE24FF24870114C040E0241640E01D
:1010F000340640E0440641E0540630F058E1E52E65
:10110000F12C012D112D05C040E1E42EF12C012D13
:10111000112DD201C1010E2C04C0B695A79597954B
:1011200087950A94D2F7875B9E4FDC012C9130E2C1
:10113000A32EB12CC12CD12CD601C5018E199F092B
:10114000A00BB10B7C018D01E21AF1080109110914
:10115000E9AEFAAE0BAF1CAFE114F10401051105C5
:1011600039F464015301A218B308C408D508E2C0D9
:10117000F9AC6896FFAE68970F2C04C0220C331CA4
:10118000441C551C0A94D2F78A2D8F19640153010F
:10119000082E04C0D694C794B794A7940A94D2F7A3
:1011A000A401930104C0220F331F441F551FFA945A
:1011B000D2F76C966CAC7DAC8EAC9FAC6C9704C0D7
:1011C00096948794779467948A95D2F784017301F3
:1011D000E22AF32A042B152BEDA6FEA60FA718ABC7
:1011E000320188249924B201A101607070702596A3
:1011F0004CAF5DAF6EAF7FAF2597C601B501A401BF
:1012000093010E9434327B018C01C601B501A40117
:1012100093010E943432CA01B90125962CAD3DAD2F
:101220004EAD5FAD25970E9415329B01AC01870141
:10123000FF24EE24ADA4BEA4CFA4D8A8C601AA273B
:10124000BB275C016D01AE28BF28C02AD12AA21697
:10125000B306C406D50690F4A20CB31CC41CD51C5E
:10126000A214B304C404D50448F0A216B306C406FD
:10127000D50620F4A20CB31CC41CD51CA21AB30AB8
:10128000C40AD50AC601B501A40193010E943432F3
:101290007B018C01C601B501A40193010E94343287
:1012A000CA01B90125962CAD3DAD4EAD5FAD259778
:1012B0000E9415329B01AC018701FF24EE248DA50D
:1012C0009EA5AFA5B8A9A070B07057016801A82A63
:1012D000B92ACA2ADB2AA216B306C406D50690F498
:1012E000A20CB31CC41CD51CA214B304C404D504A2
:1012F00048F0A216B306C406D50620F4A20CB31C0F
:10130000C41CD51C6C96ECACFDAC0EAD1FAD6C973F
:1013100068960FAC689704C0EE0CFF1C001F111FED
:101320000A94D2F7E9AAFAAA0BAB1CABA21AB30A29
:10133000C40AD50A320188249924B201A10160703F
:10134000707029964CAF5DAF6EAF7FAF2997C60125
:10135000B501A40193010E9434327B018C01C601C6
:10136000B501A40193010E943432CA01B901299642
:101370002CAD3DAD4EAD5FAD29970E9415329B015E
:10138000AC018701FF24EE24A9A8BAA8CBA8DCA849
:10139000C601AA27BB2757016801A82AB92ACA2A69
:1013A000DB2AA216B306C406D50690F4A20CB31C21
:1013B000C41CD51CA214B304C404D50448F0A2165E
:1013C000B306C406D50620F4A20CB31CC41CD51C5D
:1013D000A21AB30AC40AD50AC601B501A401930131
:1013E0000E9434327B018C01C601B501A401930136
:1013F0000E943432CA01B90129962CAD3DAD4EADE3
:101400005FAD29970E9415329B01AC018701FF2433
:10141000EE2489A99AA9ABA9BCA9A070B070E82A4A
:10142000F92A0A2B1B2BE216F3060407150790F482
:10143000E20CF31C041D151DE214F304040515054C
:1014400048F0E216F3060407150720F4E20CF31C3B
:10145000041D151DE21AF30A040B150BD801C70170
:1014600009AC04C0B695A795979587950A94D2F7CD
:10147000898B9A8BAB8BBC8B1D8A1E8A1F8A188E18
:10148000282F3A894B895C896D890CC36A147B04C7
:101490008C049D0408F409C300E0A01600E0B00627
:1014A00001E0C00600E0D00688F41FEFA116B104E9
:1014B000C104D10439F030F028E0E22EF12C012DE6
:1014C000112D18C0EE24FF24870114C040E0A4169B
:1014D00040E0B40640E0C40641E0D40630F098E1B4
:1014E000E92EF12C012D112D05C080E1E82EF12C03
:1014F000012D112DD601C5010E2C04C0B695A7955E
:10150000979587950A94D2F7875B9E4FDC012C91C3
:1015100080E290E0A0E0B0E08E199F09A00BB10B33
:10152000821B9109A109B1090097A105B10509F034
:101530004FC0A614B704C804D90458F06C96ECAC9C
:10154000FDAC0EAD1FAD6C97E214F3040405150558
:1015500068F16C96ECACFDAC0EAD1FAD6C97E2186B
:10156000F30804091509A40193012A193B094C0940
:101570005D09AA24BB2465016C966CAD7DAD8EAD72
:101580009FAD6C976E157F058007910728F4B1E039
:10159000AB2EB12CC12CD12CDA01C9018A199B09BF
:1015A000AC09BD098DAB9EABAFABB8AFE98AFA8A87
:1015B0000B8B1C8B6DA87EA88FA898AC6D8A7E8A39
:1015C0008F8A988E2E2D3A894B895C896DA96AC2C3
:1015D00067968FAF6797A6019501082E04C0220F6A
:1015E000331F441F551F0A94D2F7A0E2AA2EA81A4F
:1015F0006696AFAE6697D201C10104C0B695A795B5
:1016000097958795AA94D2F76C017D01C22AD32AB7
:10161000E42AF52AC9A6DAA6EBA6FCA68201710186
:1016200067960FAC679704C0EE0CFF1C001F111FDC
:101630000A94D2F7EDA2FEA20FA318A764015301EA
:1016400066960FAC669704C0D694C794B794A794D7
:101650000A94D2F7A401930167960FAC679704C070
:10166000220F331F441F551F0A94D2F76C968CAD7E
:101670009DADAEADBFAD6C9766960FAC669704C0DE
:10168000B695A795979587950A94D2F73C014D0199
:10169000622A732A842A952A69A27AA28BA29CA222
:1016A0006C96ECACFDAC0EAD1FAD6C9767960FACB5
:1016B000679704C0EE0CFF1C001F111F0A94D2F79D
:1016C000ED8EFE8E0F8F18A349A55AA56BA57CA59C
:1016D0003B0188249924607070702D964CAF5DAFEB
:1016E0006EAF7FAF2D97C601B501A40193010E9493
:1016F00034327B018C01C601B501A40193010E9423
:101700003432C901DA011C012D01C201B1012D964B
:101710002CAD3DAD4EAD5FAD2D970E9415329B01B6
:10172000AC018701FF24EE24A9A0BAA0CBA0DCA0C5
:10173000C601AA27BB2757016801A82AB92ACA2AC5
:10174000DB2AA216B306C406D50600F508942108C4
:10175000310841085108E9A4FAA40BA51CA5AE0C58
:10176000BF1CC01ED11EAE14BF04C006D10670F04F
:10177000A216B306C406D50648F408942108310819
:1017800041085108AE0CBF1CC01ED11EA21AB30ADC
:10179000C40AD50AC601B501A40193010E943432DE
:1017A0007B018C01C601B501A40193010E94343272
:1017B000C901DA013C014D01C401B3012D962CADE4
:1017C0003DAD4EAD5FAD2D970E9415329B01AC0132
:1017D0008701FF24EE2489A19AA1ABA1BCA1A0702E
:1017E000B07057016801A82AB92ACA2ADB2AA216B2
:1017F000B306C406D50600F508946108710881088F
:10180000910869A57AA58BA59CA5A60EB71EC81E32
:10181000D91EA616B706C806D90670F0A216B306DA
:10182000C406D50648F40894610871088108910837
:10183000A60EB71EC81ED91ED601C501821B930B6A
:10184000A40BB50B898F9A8FAB8FBC8FD1019927D1
:10185000882784017301E82AF92A0A2B1B2B4FEFF2
:10186000A42E4FEFB42EC12CD12CAE20BF20C0220D
:10187000D1227801002711276DA07EA08FA098A407
:101880004FEF5FEF60E070E06422752286229722BE
:101890008DA19EA1AFA1B8A5BD0188279927659606
:1018A0006CAF7DAF8EAF9FAF6597C601B501A40148
:1018B00093010E94153261966CAF7DAF8EAF9FAFE2
:1018C0006197C601B50165962CAD3DAD4EAD5FADDE
:1018D00065970E9415321B012C01C801B701A401B4
:1018E00093010E9415325B016C01C801B701659636
:1018F0002CAD3DAD4EAD5FAD65970E9415327B01BD
:101900008C01A6019501220D331D441D551D6196C4
:101910006CAC7DAC8EAC9FAC6197C401AA27BB2791
:10192000280F391F4A1F5B1F2A153B054C055D0513
:1019300048F4812C912CE1E0AE2EB12CE80CF91C7E
:101940000A1D1B1DCA01AA27BB2757016801A80E43
:10195000B91ECA1EDB1EA9013327222761968CAD52
:101960009DADAEADBFAD6197A070B070280F391FAF
:101970004A1F5B1FE98CFA8C0B8D1C8DEA14FB044B
:101980000C051D0570F0AE14BF04C006D10669F544
:101990006D8D7E8D8F8D98A16217730784079507D3
:1019A00020F5DA01C9016DA07EA08FA098A4861948
:1019B0009709A809B909E9A4FAA40BA51CA5AE18B2
:1019C000BF08C00AD10AEE24FF248701281739076F
:1019D0004A075B0728F421E0E22EF12C012D112D9E
:1019E000AE18BF08C00AD10A02C0DA01C9016D8C65
:1019F0007E8C8F8C98A0681A790A8A0A9B0A498D76
:101A00005A8D6B8D7C8D4A195B096C097D095A01D1
:101A10006B012224332421016D8D7E8D8F8D98A141
:101A2000661577058805990528F481E0282E312C64
:101A3000412C512C86017501E218F308040915099F
:101A4000A801970166960FAC669704C0220F331F5A
:101A5000441F551F0A94D2F7D401C30167960FACF7
:101A6000679704C0B695A795979587950A94D2F77E
:101A7000282B392B4A2B5B2B298B3A8B4B8B5C8B7E
:101A800067960FAC679704C016950795F794E7948F
:101A90000A94D2F7ED8AFE8A0F8B188F3A894B8908
:101AA0005C896E2D7E898F89988DC55ADF4FE2E162
:101AB0000C947232A0E0B0E0E0E6FDE00C94563207
:101AC000DC012B01FA019C91923008F439C1EB0141
:101AD0008881823008F433C1943069F4843009F08D
:101AE0002FC111969C9111978981981709F428C1EB
:101AF000A1E4B1E025C1843009F421C18230A9F408
:101B0000923009F01DC19A01AD0188E0EA01099007
:101B1000AE01E90109929E018150C1F7E20189817C
:101B200011969C918923818308C1923009F407C1E1
:101B300012962D903C901397EB018A819B8114960D
:101B4000AD90BD90CD90DC901797EC80FD800E811C
:101B50001F819101281B390BB90137FF04C066278B
:101B60007727621B730B603271050CF061C012168F
:101B700013066CF537014801062E04C0969487942D
:101B8000779467940A94D2F721E030E040E050E087
:101B900004C0220F331F441F551F6A95D2F72150EE
:101BA0003040404050402E213F21402351232115F9
:101BB00031054105510521F021E030E040E050E0E1
:101BC00079018A01E628F728082919293CC0232B26
:101BD000D1F1260E371E35014601062E04C096941B
:101BE0008794779467940A94D2F721E030E040E03C
:101BF00050E004C0220F331F441F551F6A95D2F7CF
:101C000021503040404050402A213B214C215D2151
:101C1000211531054105510521F021E030E040E07A
:101C200050E059016A01A628B728C828D9280BC056
:101C3000821593052CF01C01AA24BB24650103C066
:101C4000EE24FF24870111969C91D20111968C916C
:101C5000981709F445C0992339F0A80197012A196A
:101C60003B094C095D0906C0A60195012E193F09E3
:101C7000400B510B57FD08C011823382228224830E
:101C80003583468357831DC081E08183338222825E
:101C900088279927DC01821B930BA40BB50B848347
:101CA0009583A683B7830DC0220F331F441F551F92
:101CB000248335834683578382819381019793835D
:101CC00082832481358146815781DA01C9010197D8
:101CD000A109B1098F5F9F4FAF4FBF4328F30BC0DE
:101CE000918333822282EA0CFB1C0C1D1D1DE482B1
:101CF000F5820683178383E08083248135814681C2
:101D0000578157FF1AC0C901AA2797FDA095BA2F7E
:101D100081709070A070B070569547953795279553
:101D2000822B932BA42BB52B84839583A683B78317
:101D300082819381019693838283DF0101C0D20166
:101D4000CD01CDB7DEB7E2E10C947232A0E2B0E093
:101D5000ECEAFEE00C94623269837A838B839C8385
:101D60002D833E834F835887E9E0EE2EF12CEC0E55
:101D7000FD1ECE010196B7010E94B7118E010F5EC4
:101D80001F4FCE010596B8010E94B7118A8991E0D4
:101D900089278A8BC701B801AE01475E5F4F0E9459
:101DA0005A0D0E94E210A096E6E00C947E32A0E26A
:101DB000B0E0EDEDFEE00C94623269837A838B83B0
:101DC0009C832D833E834F835887F9E0EF2EF12CBF
:101DD000EC0EFD1ECE010196B7010E94B7118E01D7
:101DE0000F5E1F4FCE010596B8010E94B711C701C3
:101DF000B801AE01475E5F4F0E945A0D0E94E2108B
:101E0000A096E6E00C947E32A0E2B0E0EAE0FFE0CB
:101E10000C94563269837A838B839C832D833E8313
:101E20004F835887CE010196BE01675F7F4F0E94A6
:101E3000B711CE010596BE016F5E7F4F0E94B711AC
:101E40009985923088F089898230C8F0943019F4ED
:101E5000823051F404C0843029F4923081F481E45A
:101E600091E0C6C0923049F420E09A858A8998139F
:101E700021E02A87CE010996BBC0823049F420E0D8
:101E80009A858A89981321E02A8BCE014196B0C0A9
:101E90002D843E844F8458886D887E888F88988CE6
:101EA000EE24FF248701AA24BB24650140E050E012
:101EB00060E070E0E0E0F0E0C10181709070892B9B
:101EC000E9F0E60CF71C081D191D9A01AB012A0D5B
:101ED0003B1D4C1D5D1D80E090E0A0E0B0E0E614ED
:101EE000F7040805190520F481E090E0A0E0B0E0D7
:101EF000BA01A901480F591F6A1F7B1FAA0CBB1CFE
:101F0000CC1CDD1C97FE08C081E090E0A0E0B0E0B2
:101F1000A82AB92ACA2ADB2A3196E032F10549F00B
:101F2000660C771C881C991C569447943794279408
:101F3000C3CFFA85EA892B893C898B859C85280F3C
:101F4000391F2E5F3F4F17C0CA0181709070892BD7
:101F500061F016950795F794E79480E090E0A0E093
:101F6000B0E8E82AF92A0A2B1B2B76956795579536
:101F700047952F5F3F4F77FDE7CF0CC0440F551FAC
:101F8000661F771F17FD4160EE0CFF1C001F111F1D
:101F900021503040403090E0590790E0690790E4CC
:101FA000790760F32B8F3C8FDB01CA018F7790702C
:101FB000A070B07080349105A105B10561F447FDB2
:101FC0000AC0E114F1040105110529F0405C5F4FDE
:101FD0006F4F7F4F40781A8EFE1711F081E08A8F85
:101FE0004D8F5E8F6F8F78A383E0898FCE014996E6
:101FF0000E94E210A096E2E10C947232A8E1B0E0F7
:10200000E4E0F0E10C94623269837A838B839C83F1
:102010002D833E834F83588789E0E82EF12CEC0E08
:10202000FD1ECE010196B7010E94B7118E010F5E11
:102030001F4FCE010596B8010E94B71189858230E5
:1020400040F08989823028F0C701B8010E942F1220
:1020500001C08FEF6896E6E00C947E32A8E1B0E014
:10206000E4E3F0E10C94623269837A838B839C838E
:102070002D833E834F83588789E0E82EF12CEC0EA8
:10208000FD1ECE010196B7010E94B7118E010F5EB1
:102090001F4FCE010596B8010E94B7118985823085
:1020A00040F08989823028F0C701B8010E942F12C0
:1020B00001C08FEF6896E6E00C947E32A8E1B0E0B4
:1020C000E4E6F0E10C94623269837A838B839C832B
:1020D0002D833E834F83588789E0E82EF12CEC0E48
:1020E000FD1ECE010196B7010E94B7118E010F5E51
:1020F0001F4FCE010596B8010E94B7118985823025
:1021000040F08989823028F0C701B8010E942F125F
:1021100001C081E06896E6E00C947E32ACE0B0E06D
:10212000E4E9F0E10C94663269837A838B839C83C3
:10213000CE010196BE016B5F7F4F0E94B7118D816A
:10214000823061F1823050F1843021F48E81882315
:1021500051F12EC02F81388537FD20C06E812F317F
:1021600031051CF06623F9F023C08EE190E0821B5C
:10217000930B29853A854B855C8504C05695479518
:10218000379527958A95D2F76623B1F050954095FB
:10219000309521953F4F4F4F5F4F0EC020E030E00C
:1021A00040E050E009C02FEF3FEF4FEF5FE704C082
:1021B00020E030E040E050E8B901CA012C96E2E0AE
:1021C0000C948232DF92EF92FF920F931F93FC01E7
:1021D000E480F58006811781D1808081823048F4C7
:1021E00080E090E0A0E1B0E0E82AF92A0A2B1B2B5E
:1021F000A5C0843009F49FC0823021F4EE24FF246E
:10220000870105C0E114F1040105110519F4E0E0AE
:10221000F0E096C0628173819FEF623879070CF01D
:102220005BC022E83FEF261B370B2A3131052CF02B
:1022300020E030E040E050E02AC0B801A701022EC3
:1022400004C076956795579547950A94D2F781E033
:1022500090E0A0E0B0E004C0880F991FAA1FBB1F48
:102260002A95D2F70197A109B1098E219F21A023B8
:10227000B1230097A105B10521F081E090E0A0E035
:10228000B0E09A01AB01282B392B4A2B5B2BDA01EA
:10229000C9018F779070A070B07080349105A1054E
:1022A000B10539F427FF09C0205C3F4F4F4F5F4F06
:1022B00004C0215C3F4F4F4F5F4FE0E0F0E0203023
:1022C000A0E03A07A0E04A07A0E45A0710F0E1E0D6
:1022D000F0E079018A0127C06038710564F5FB01DF
:1022E000E158FF4FD801C7018F779070A070B07090
:1022F00080349105A105B10539F4E7FE0DC080E4F5
:1023000090E0A0E0B0E004C08FE390E0A0E0B0E097
:10231000E80EF91E0A1F1B1F17FF05C0169507952B
:10232000F794E794319687E016950795F794E7942C
:102330008A95D1F705C0EE24FF248701EFEFF0E086
:102340006E2F679566276795902F9F77D794DD242A
:10235000D7948E2F8695492F462B582F5D29B7018C
:10236000CA011F910F91FF90EF90DF900895FC013B
:10237000DB01408151812281622F6F7770E0221F43
:102380002227221F9381892F880F822B282F30E04C
:10239000991F9927991F11969C9311972115310523
:1023A000A9F5411551056105710511F482E037C0A9
:1023B00082E89FEF13969C938E9312979A01AB013C
:1023C00067E0220F331F441F551F6A95D1F783E042
:1023D0008C930DC0220F331F441F551F12968D91F1
:1023E0009C911397019713969C938E93129720308C
:1023F00080E0380780E0480780E4580758F31496D7
:102400002D933D934D935C93179708952F3F31057E
:1024100079F4411551056105710519F484E08C9337
:10242000089564FF03C081E08C9312C01C9210C019
:102430002F57304013963C932E93129783E08C9342
:1024400087E0440F551F661F771F8A95D1F7706488
:1024500014964D935D936D937C93179708951F93F6
:10246000DC01FB019C91923008F447C080818230EE
:1024700008F443C0943051F411961C91843099F5BE
:102480008181682F70E0611B71093FC0843021F0A9
:10249000923031F48230B9F18181882389F12DC0E5
:1024A00011961C9111978230F1F081811817D9F49F
:1024B00012962D913C9113978281938182179307F5
:1024C00094F028173907BCF014968D919D910D90CA
:1024D000BC91A02D24813581468157812817390769
:1024E0004A075B0718F4112341F00AC082179307CB
:1024F000A407B50740F4112319F061E070E005C0AE
:102500006FEF7FEF02C060E070E0CB011F91089594
:10251000DF93CF93CDB7DEB7E7E2F0E081E08083D1
:10252000A7E2B0E0E7E2F0E0808180648C93A7E26C
:10253000B0E0E7E2F0E080818F778C93A6E2B0E034
:10254000E6E2F0E0808181608C93A6E2B0E0E6E212
:10255000F0E0808182608C93A6E2B0E0E6E2F0E0F9
:10256000808184608C93A6E2B0E0E6E2F0E08081B6
:1025700080688C93A6E2B0E0E6E2F0E080818860BB
:102580008C93AFE5B0E0EFE5F0E0808180688C935C
:10259000CF91DF910895DF93CF930F92CDB7DEB740
:1025A0008983A7E2B0E0E7E2F0E08081807F8C934E
:1025B000A7E2B0E0E7E2F0E090818981892B8C937B
:1025C000A6E2B0E0E6E2F0E0808180648C930F90B8
:1025D000CF91DF910895DF93CF9300D0CDB7DEB7D1
:1025E000E4E2F0E0808191819A83898389819A81F4
:1025F0000F900F90CF91DF910895DF93CF93CDB7D8
:10260000DEB76A970FB6F894DEBF0FBECDBF9E014E
:102610002C5F3F4F3F8B2E8B83E892E0998F888F02
:1026200090E19A8FE88DF98D0080288D398D2F5F8C
:102630003F4F398F288FEE89FF8900822E893F898D
:102640002F5F3F4F3F8B2E8B3A8D31503A8F8A8DC3
:10265000882341F71B820AC18B8187708A838B8113
:1026600086958695869589838B81882F90E0FC01DD
:10267000E75BFD4F8081E82FF0E0FD8BEC8B2C8930
:102680003D892130310509F466C08C899D898330EC
:10269000910509F48DC0EC89FD89309709F0E3C0FC
:1026A0008981882F90E09C01220F331FCE01019673
:1026B000820F931FFC013396A081B1818981882FFD
:1026C00090E09C01220F331FCE010196820F931FD1
:1026D000FC0133960190F081E02D8081482F8A81A2
:1026E000282F30E081E090E002C0880F991F2A95E2
:1026F000E2F7809584238C938981882F90E004965B
:102700009C01220F331FCE010196820F931FFC0103
:102710003396A081B1818981882F90E004969C0135
:10272000220F331FCE010196820F931FFC013396B7
:102730000190F081E02D8081482F8A81282F30E0A0
:1027400081E090E0022E02C0880F991F0A94E2F700
:10275000842B8C9388C08981882F90E09C01220F64
:10276000331FCE010196820F931FFC013396A08187
:10277000B1818981882F90E09C01220F331FCE0107
:102780000196820F931FFC0133960190F081E02D9A
:102790008081482F8A81282F30E081E090E0022E4E
:1027A00002C0880F991F0A94E2F7842B8C935BC0B8
:1027B0008981882F90E09C01220F331FCE01019662
:1027C000820F931FFC013396A081B1818981882FEC
:1027D00090E09C01220F331FCE010196820F931FC0
:1027E000FC0133960190F081E02D8081482F8A8191
:1027F000282F30E081E090E002C0880F991F2A95D1
:10280000E2F7809584238C938981882F90E0049649
:102810009C01220F331FCE010196820F931FFC01F2
:102820003396A081B1818981882F90E004969C0124
:10283000220F331FCE010196820F931FFC013396A6
:102840000190F081E02D8081482F8A81282F30E08F
:1028500081E090E0022E02C0880F991F0A94E2F7EF
:10286000809584238C938B818F5F8B838B818032C7
:1028700008F4F2CE6A960FB6F894DEBF0FBECDBF55
:10288000CF91DF910895DF93CF93CDB7DEB76397F4
:102890000FB6F894DEBF0FBECDBF8B876C879E014D
:1028A0002D5F3F4F388B2F8783E992E09A8B898B7E
:1028B00098E09B8BE989FA89008029893A892F5F02
:1028C0003F4F3A8B298BEF85F88900822F85388915
:1028D0002F5F3F4F388B2F873B8931503B8B8B8944
:1028E000882341F78B8587708A838B8586958695AB
:1028F000869589838C85E82FF0E0FE87ED872D850E
:102900003E852115310531F08D859E8581309105FB
:1029100079F15AC08981882F90E09C01220F331FE2
:10292000CE010196820F931FFC013296A081B181E6
:102930008981882F90E09C01220F331FCE010196E0
:10294000820F931FFC0132960190F081E02D80816F
:10295000482F8A81282F30E081E090E0022E02C0CB
:10296000880F991F0A94E2F7809584238C932CC0DA
:102970008981882F90E09C01220F331FCE010196A0
:10298000820F931FFC013296A081B1818981882F2B
:1029900090E09C01220F331FCE010196820F931FFE
:1029A000FC0132960190F081E02D8081482F8A81D0
:1029B000282F30E081E090E0022E02C0880F991F9E
:1029C0000A94E2F7842B8C9363960FB6F894DEBFDB
:1029D0000FBECDBFCF91DF910895DF93CF9300D08D
:1029E00000D0CDB7DEB789836A838981282F30E094
:1029F0003C832B838B819C8181309105D1F02B818D
:102A00003C81223031052CF48B819C81009761F050
:102A10001EC02B813C812230310581F08B819C814D
:102A20008330910581F013C0EBE3F0E08A8180836D
:102A30000EC0E8E3F0E08A81808309C0E5E3F0E0BE
:102A40008A81808304C0E2E3F0E08A8180830F9072
:102A50000F900F900F90CF91DF910895DF93CF9358
:102A6000CDB7DEB761970FB6F894DEBF0FBECDBF0E
:102A70008C871982AE014C5F5F4F5E874D878BE973
:102A800092E0988B8F8798E0998BEF85F88900808A
:102A90004F8558894F5F5F4F588B4F87ED85FE8577
:102AA00000824D855E854F5F5F4F5E874D875989F8
:102AB0005150598B8989882341F78C8587708B8386
:102AC0008C858695869586958A838A81882F90E065
:102AD0009C01220F331FCE010196820F931FFC0130
:102AE00033960190F081E02D8081282F30E08B819A
:102AF000882F90E0F90102C0F595E7958A95E2F7F5
:102B0000CF0181708983898161960FB6F894DEBF09
:102B10000FBECDBFCF91DF910895DF93CF9300D04B
:102B200000D0CDB7DEB78A8319828A81282F30E0A2
:102B30003C832B838B819C8181309105D1F02B814B
:102B40003C81223031052CF48B819C81009761F00F
:102B50001EC02B813C812230310581F08B819C810C
:102B60008330910581F013C0E9E3F0E0808189832F
:102B70000EC0E6E3F0E08081898309C0E3E3F0E082
:102B80008081898304C0E0E3F0E0808189838981CA
:102B90000F900F900F900F90CF91DF910895DF93DA
:102BA000CF930F92CDB7DEB78983ABE5B0E0EBE50D
:102BB000F0E0808180688C93ABE5B0E0EBE5F0E07D
:102BC000808180648C9389818823E9F4A5E5B0E055
:102BD000E5E5F0E080818E7F8C93A5E5B0E0E5E54A
:102BE000F0E0808182608C93A5E5B0E0E5E5F0E05F
:102BF00080818B7F8C93A5E5B0E0E5E5F0E08081F6
:102C000088608C931FC089818130E1F4A5E5B0E034
:102C1000E5E5F0E0808181608C93A5E5B0E0E5E535
:102C2000F0E0808182608C93A5E5B0E0E5E5F0E01E
:102C3000808184608C93A5E5B0E0E5E5F0E08081DB
:102C400088608C93AFE5B0E0EFE5F0E080818068CC
:102C50008C930F90CF91DF910895DF93CF93CDB7F1
:102C6000DEB7AFE5B0E0EFE5F0E080818F778C93E1
:102C7000ABE5B0E0EBE5F0E080818F778C93ABE5DE
:102C8000B0E0EBE5F0E080818F7B8C93CF91DF911A
:102C90000895DF93CF93CDB7DEB7ADE2B0E0EDE2BC
:102CA000F0E0808181608C93ADE2B0E0EDE2F0E095
:102CB00080818D7F8C93AEE2B0E0EEE2F0E0808127
:102CC00081608C93ADE2B0E0EDE2F0E08081806263
:102CD0008C93ADE2B0E0EDE2F0E08081877F8C93F1
:102CE000ADE2B0E0EDE2F0E080818B7F8C93ADE26D
:102CF000B0E0EDE2F0E0808180618C93ADE2B0E085
:102D0000EDE2F0E0808180648C93CF91DF910895B3
:102D1000DF93CF93CDB7DEB7ADE2B0E0EDE2F0E008
:102D2000808181608C93ADE2B0E0EDE2F0E08081E3
:102D30008D7F8C93AEE2B0E0EEE2F0E080818160C6
:102D40008C93ADE2B0E0EDE2F0E0808180628C93A4
:102D5000ADE2B0E0EDE2F0E08081877F8C93ADE200
:102D6000B0E0EDE2F0E080818B7F8C93ADE2B0E0EB
:102D7000EDE2F0E080818F7E8C93ADE2B0E0EDE299
:102D8000F0E0808180648C93CF91DF910895DF9390
:102D9000CF930F92CDB7DEB78983EFE2F0E0898160
:102DA0008083EEE2F0E080818823DCF70F90CF9102
:102DB000DF910895DF93CF93CDB7DEB7EEE2F0E079
:102DC00080818823DCF7EFE2F0E08081CF91DF9112
:102DD0000895DF93CF93CDB7DEB7A3E5B0E0E3E589
:102DE000F0E0808188608C93A3E5B0E0E3E5F0E05B
:102DF000808180648C93A3E5B0E0E3E5F0E080811E
:102E00008F7E8C93A3E5B0E0E3E5F0E08081806203
:102E10008C93A9E5B0E0E9E5F0E0808182608C93D5
:102E2000AFE5B0E0EFE5F0E0808180688C93A3E54A
:102E3000B0E0E3E5F0E0808181608C93A3E5B0E051
:102E4000E3E5F0E080818D7F8C93A3E5B0E0E3E5DE
:102E5000F0E0808184608C93CF91DF910895DF93BF
:102E6000CF93CDB7DEB7AFE4B0E0EFE4F0E0808120
:102E70008E7F8C93AFE4B0E0EFE4F0E080818D7F53
:102E80008C93AEE4B0E0EEE4F0E08081877F8C9339
:102E9000AEE4B0E0EEE4F0E080818F7E8C93AFE4AE
:102EA000B0E0EFE4F0E080818F7E8C93AFE4B0E09F
:102EB000EFE4F0E080818F7D8C93AFE4B0E0EFE44D
:102EC000F0E080818F7B8C93AFE4B0E0EFE4F0E042
:102ED00080818F778C93A9E5B0E0E9E5F0E080810F
:102EE00084608C93AFE5B0E0EFE5F0E0808180682E
:102EF0008C93AEE4B0E0EEE4F0E0808181608C93EE
:102F0000AEE4B0E0EEE4F0E080818D7F8C93AEE43F
:102F1000B0E0EEE4F0E0808184608C93CF91DF91AB
:102F20000895DF93CF93CDB7DEB7E0E2F0E083E022
:102F30008083A1E2B0E0E1E2F0E080818E7F8C93BB
:102F4000A1E2B0E0E1E2F0E080818D7F8C93A6E524
:102F5000B0E0E6E5F0E0808184608C93CF91DF9172
:102F60000895DF93CF930F92CDB7DEB78983E2E266
:102F7000F0E08981880F8083A2E2B0E0E2E2F0E035
:102F800080818E7F8C93E0E2F0E083E08083A1E299
:102F9000B0E0E1E2F0E080818E7F8C93A1E2B0E0CE
:102FA000E1E2F0E080818D7F8C93A6E5B0E0E6E57C
:102FB000F0E0808180648C93A6E5B0E0E6E5F0E087
:102FC000808184608C93E6E5F0E080818823DCF7E3
:102FD0000F90CF91DF910895DF93CF9300D0CDB7BD
:102FE000DEB789836A83A6E5B0E0E6E5F0E080819C
:102FF00080628C93A6E5B0E0E6E5F0E08081846035
:103000008C93A6E5B0E0E6E5F0E0808180688C93E3
:10301000E6E5F0E080818823DCF7E3E2F0E08981F7
:10302000882F90E0880F991F982F8A81892B8083A1
:10303000A6E5B0E0E6E5F0E080818F7D8C93A6E523
:10304000B0E0E6E5F0E0808180688C93A6E5B0E032
:10305000E6E5F0E0808184608C93E6E5F0E0808135
:103060008823DCF70F900F90CF91DF910895DF93C5
:10307000CF93CDB7DEB7A6E5B0E0E6E5F0E080811E
:1030800080618C93A6E5B0E0E6E5F0E080818460A5
:103090008C93A6E5B0E0E6E5F0E0808180688C9353
:1030A000CF91DF910895DF93CF9300D0CDB7DEB7F6
:1030B00089836A83A6E5B0E0E6E5F0E0808180627E
:1030C0008C93A6E5B0E0E6E5F0E0808184608C9327
:1030D000A6E5B0E0E6E5F0E0808180688C93E6E567
:1030E000F0E080818823DCF7E3E2F0E08981882F3B
:1030F00090E0880F991F982F8A81892B8083A6E5FD
:10310000B0E0E6E5F0E080818F7D8C93A6E5B0E04D
:10311000E6E5F0E0808180688C93A6E5B0E0E6E526
:10312000F0E0808184608C93E6E5F0E08081882384
:10313000DCF70F900F90CF91DF910895DF93CF933D
:10314000CDB7DEB7A6E5B0E0E6E5F0E080818064CB
:103150008C93A6E5B0E0E6E5F0E0808184608C9396
:10316000A6E5B0E0E6E5F0E0808180688C93E6E5D6
:10317000F0E080818823DCF7A8E3B0E0E8E3F0E04A
:10318000908181E089278C93E3E2F0E08081CF9108
:10319000DF910895DF93CF93CDB7DEB7A6E5B0E01A
:1031A000E6E5F0E080818F7B8C93A6E5B0E0E6E574
:1031B000F0E0808184608C93A6E5B0E0E6E5F0E085
:1031C000808180688C93E6E5F0E080818823DCF7DD
:1031D000E3E2F0E08081CF91DF910895DF93CF9318
:1031E0000F92CDB7DEB78983E3E2F0E08981808377
:1031F000A6E5B0E0E6E5F0E0808180648C93A6E58A
:10320000B0E0E6E5F0E0808184608C93A6E5B0E074
:10321000E6E5F0E0808180688C93E6E5F0E080816F
:103220008823DCF70F90CF91DF910895DF93CF9340
:103230000F92CDB7DEB78983E3E2F0E08981808326
:10324000A6E5B0E0E6E5F0E080818F7B8C93A6E513
:10325000B0E0E6E5F0E0808184608C93A6E5B0E024
:10326000E6E5F0E0808180688C93E6E5F0E080811F
:103270008823DCF70F90CF91DF910895DF93CF93F0
:10328000CDB7DEB7E1E2F0E08081CF91DF91089524
:10329000DF93CF93CDB7DEB761970FB6F894DEBF5B
:1032A0000FBECDBF998B888B1F8680C08F85282F3E
:1032B00030E088899989FC01E20FF31F80810E9428
:1032C000EE188F858F5F8F8780E090E0A8ECB2E4E6
:1032D0008B879C87AD87BE876B857C858D859E851A
:1032E00020E030E04AE755E40E94040FDC01CB0106
:1032F0008F839887A987BA876F81788589859A8512
:1033000020E030E040E85FE30E945E1088232CF468
:1033100081E090E09E838D833FC06F8178858985B1
:103320009A8520E03FEF4FE757E40E94FE0F181602
:103330004CF56B857C858D859E8520E030E040E2F4
:1033400051E40E94040FDC01CB01BC01CD010E94BD
:103350004900DC01CB019E838D830FC080E991E0A1
:103360009C838B838B819C810197F1F79C838B835A
:103370008D819E8101979E838D838D819E81009793
:1033800069F714C06F81788589859A850E94490004
:10339000DC01CB019E838D838D819E819A838983FD
:1033A00089819A810197F1F79A8389838F85282FE4
:1033B00030E088899989FC01E20FF31F808188231E
:1033C00009F074CF8F85282F30E088899989FC0116
:1033D000E20FF31F80810E94EE1861960FB6F894F9
:1033E000DEBF0FBECDBFCF91DF910895DF93CF93A6
:1033F000CDB7DEB761970FB6F894DEBF0FBECDBF75
:10340000198A188A1F860E949E18888B8CC080E0BB
:1034100090E0A8ECB2E48B879C87AD87BE876B8574
:103420007C858D859E8520E030E04AE755E40E944A
:10343000040FDC01CB018F839887A987BA876F813E
:10344000788589859A8520E030E040E85FE30E9436
:103450005E1088232CF481E090E09E838D833FC032
:103460006F81788589859A8520E03FEF4FE757E4A3
:103470000E94FE0F18164CF56B857C858D859E8508
:1034800020E030E040E251E40E94040FDC01CB0177
:10349000BC01CD010E944900DC01CB019E838D83DC
:1034A0000FC080E991E09C838B838B819C81019785
:1034B000F1F79C838B838D819E8101979E838D8301
:1034C0008D819E81009769F714C06F817885898509
:1034D0009A850E944900DC01CB019E838D838D81FA
:1034E0009E819A83898389819A810197F1F79A83D2
:1034F00089838F85882F90E0FC01EF50FD4F8889EC
:1035000080838F85882F90E0FC01EF50FD4F8081F4
:103510000E9414210E949E18888B89898F5F898B55
:103520008F858F5F8F878889882321F089898233EF
:1035300009F06DCF81EF92E061960FB6F894DEBF8F
:103540000FBECDBFCF91DF910895DF93CF93CDB75D
:10355000DEB7E9E2F0E087E68083A0E4B0E0E0E4F3
:10356000F0E0808182608C93A0E4B0E0E0E4F0E0E1
:10357000808184608C93AAE2B0E0EAE2F0E080818E
:103580008B7F8C93A0E4B0E0E0E4F0E08081886081
:103590008C93A0E4B0E0E0E4F0E080818F7E8C9337
:1035A000A0E4B0E0E0E4F0E080818F7D8C93A0E4C3
:1035B000B0E0E0E4F0E080818F7B8C93CF91DF91ED
:1035C0000895DF93CF930F92CDB7DEB78983AAE238
:1035D000B0E0EAE2F0E0808188608C93EBE2F0E01A
:1035E0008081829586958770882F90E08170907099
:1035F0000097A1F3ECE2F0E0898180830F90CF91F6
:10360000DF910895DF93CF93CDB7DEB7AAE2B0E0A4
:10361000EAE2F0E0808180618C93EBE2F0E080816F
:103620008823DCF7ECE2F0E08081CF91DF91089510
:10363000DF93CF93CDB7DEB7AAE2B0E0EAE2F0E0E5
:10364000808180618C93AAE2B0E0EAE2F0E08081C0
:1036500080688C93AFE5B0E0EFE5F0E080818068B2
:103660008C93CF91DF910895DF93CF93CDB7DEB7E1
:1036700062970FB6F894DEBF0FBECDBF998B888BD3
:103680006A8B1F8680C08F85282F30E088899989B2
:10369000FC01E20FF31F80810E94E11A80E090E0BC
:1036A000A0E2B1E48B879C87AD87BE876B857C8564
:1036B0008D859E8520E030E04AE755E40E94040FA6
:1036C000DC01CB018F839887A987BA876F817885C2
:1036D00089859A8520E030E040E85FE30E945E1033
:1036E00088232CF481E090E09E838D833FC06F811E
:1036F000788589859A8520E03FEF4FE757E40E945F
:10370000FE0F18164CF56B857C858D859E8520E017
:1037100030E040E251E40E94040FDC01CB01BC0127
:10372000CD010E944900DC01CB019E838D830FC037
:1037300080E991E09C838B838B819C810197F1F7D9
:103740009C838B838D819E8101979E838D838D8148
:103750009E81009769F714C06F81788589859A8565
:103760000E944900DC01CB019E838D838D819E8167
:103770009A83898389819A810197F1F79A83898352
:103780008F858F5F8F879F858A89981708F47BCFF5
:1037900062960FB6F894DEBF0FBECDBFCF91DF911A
:1037A00008950F931F93DF93CF930F92CDB7DEB79A
:1037B00019828981082F10E00E94021BF801ED5D3B
:1037C000FC4F80830CC089818F5F89838981082F9A
:1037D00010E00E94021BF801ED5DFC4F808389819F
:1037E000823389F78981882F90E0FC01ED5DFC4FE1
:1037F0008081882341F783E293E00F90CF91DF919E
:103800001F910F910895DF93CF93CDB7DEB7A1E459
:10381000B0E0E1E4F0E0808181608C93A1E4B0E06D
:10382000E1E4F0E0808182608C93A1E4B0E0E1E427
:10383000F0E0808184608C93A1E4B0E0E1E4F0E00A
:10384000808188608C93CF91DF910895DF93CF932F
:10385000CDB7DEB7A1E4B0E0E1E4F0E080818860BC
:103860008C93A1E4B0E0E1E4F0E0808180618C938E
:10387000A1E4B0E0E1E4F0E08081877F8C93CF9118
:10388000DF910895DF93CF93CDB7DEB7A895CF91A1
:10389000DF910895DF93CF9300D00F92CDB7DEB7BD
:1038A0008DE68B838CE061E00E9443148DE061E043
:1038B0000E9443148EE061E00E9443148FE061E0B7
:1038C0000E9443141A8233C08A81845F60E00E94A0
:1038D0004314198221C08981865E0E942E15882397
:1038E000C1F48A81482F50E08981282F30E0CA0135
:1038F000880F991F880F991F820F931FFC01EE58A4
:10390000FD4F80818B838981865E0E942E158823DE
:10391000D1F389818F5F898389818430E0F28A8144
:10392000845F61E00E9443148A818F5F8A838A8169
:10393000843050F28B810F900F900F90CF91DF91D8
:103940000895DF93CF9300D000D0CDB7DEB78DE6DA
:103950008C838DE689838CE061E00E9443148DE0C6
:1039600061E00E9443148EE061E00E9443148FE006
:1039700061E00E9443141B8243C08B81845F60E03E
:103980000E9443141A8231C08A81865E0E942E15DD
:10399000882341F58B81482F50E08A81282F30E021
:1039A000CA01880F991F880F991F820F931FFC016E
:1039B000EE58FD4F8081898390918202898198170A
:1039C00031F4809155038F5F8093550302C01092AC
:1039D000550380915503853011F489818C83898149
:1039E000809382028A818F5F8A838A81843060F229
:1039F0008B81845F61E00E9443148B818F5F8B8396
:103A00008B81843008F4B9CF8C810F900F900F9088
:103A10000F90CF91DF9108951F93DF93CF93CDB790
:103A2000DEB7EA970FB6F894DEBF0FBECDBF8AAF00
:103A300019AE81E060E00E94431481E160E00E94E1
:103A4000431482E061E00E9443148AAD8695887732
:103A5000182F146080E00E942E15812B89AF80E022
:103A600069AD0E94ED1482E060E00E94431480E0A2
:103A700090E0A0E0B0E48DAB9EABAFABB8AF6DA96A
:103A80007EA98FA998AD20E030E04AE755E40E9476
:103A9000040FDC01CB0189AB9AABABABBCAB69A922
:103AA0007AA98BA99CA920E030E040E85FE30E945E
:103AB0005E1088232CF481E090E098AB8FA73FC084
:103AC00069A97AA98BA99CA920E03FEF4FE757E4A9
:103AD0000E94FE0F18164CF56DA97EA98FA998AD0E
:103AE00020E030E040E251E40E94040FDC01CB0111
:103AF000BC01CD010E944900DC01CB0198AB8FA72E
:103B00000FC080E991E09EA78DA78DA59EA5019786
:103B1000F1F79EA78DA78FA598A9019798AB8FA7BE
:103B20008FA598A9009769F714C069A97AA98BA9EC
:103B30009CA90E944900DC01CB0198AB8FA78FA5FF
:103B400098A99CA78BA78BA59CA50197F1F79CA78B
:103B50008BA782E061E00E94431480E090E0A0E83F
:103B6000BFE38FA398A7A9A7BAA76FA178A589A536
:103B70009AA520E030E04AE755E40E94040FDC01FA
:103B8000CB018BA39CA3ADA3BEA36BA17CA18DA1F4
:103B90009EA120E030E040E85FE30E945E108823B1
:103BA0002CF481E090E09AA389A33FC06BA17CA193
:103BB0008DA19EA120E03FEF4FE757E40E94FE0F4A
:103BC00018164CF56FA178A589A59AA520E030E0DC
:103BD00040E251E40E94040FDC01CB01BC01CD01A5
:103BE0000E944900DC01CB019AA389A30FC080E9A0
:103BF00091E098A38F8F8F8D98A10197F1F798A3EB
:103C00008F8F89A19AA101979AA389A389A19AA1CB
:103C1000009769F714C06BA17CA18DA19EA10E94A1
:103C20004900DC01CB019AA389A389A19AA19E8FA7
:103C30008D8F8D8D9E8D0197F1F79E8F8D8F8AAD23
:103C4000882F90E0880F991F880F991F880F991F60
:103C50008877182F146080E00E942E15812B89AF81
:103C600080E069AD0E94ED1482E060E00E944314A0
:103C700080E090E0A0E0B0E4898F9A8FAB8FBC8F9A
:103C8000698D7A8D8B8D9C8D20E030E04AE755E47C
:103C90000E94040FDC01CB018D8B9E8BAF8BB88F04
:103CA0006D897E898F89988D20E030E040E85FE360
:103CB0000E945E1088232CF481E090E09C8B8B8B1B
:103CC0003FC06D897E898F89988D20E03FEF4FE757
:103CD00057E40E94FE0F18164CF5698D7A8D8B8D76
:103CE0009C8D20E030E040E251E40E94040FDC01B2
:103CF000CB01BC01CD010E944900DC01CB019C8BB2
:103D00008B8B0FC080E991E09A8B898B89899A8986
:103D10000197F1F79A8B898B8B899C8901979C8BF2
:103D20008B8B8B899C89009769F714C06D897E897C
:103D30008F89988D0E944900DC01CB019C8B8B8B75
:103D40008B899C89988B8F878F8598890197F1F74C
:103D5000988B8F8782E061E00E94431480E090E0BE
:103D6000A0EAB0E48B879C87AD87BE876B857C8596
:103D70008D859E8520E030E04AE755E40E94040FDF
:103D8000DC01CB018F839887A987BA876F817885FB
:103D900089859A8520E030E040E85FE30E945E106C
:103DA00088232CF481E090E09E838D833FC06F8157
:103DB000788589859A8520E03FEF4FE757E40E9498
:103DC000FE0F18164CF56B857C858D859E8520E051
:103DD00030E040E251E40E94040FDC01CB01BC0161
:103DE000CD010E944900DC01CB019E838D830FC071
:103DF00080E991E09C838B838B819C810197F1F713
:103E00009C838B838D819E8101979E838D838D8181
:103E10009E81009769F714C06F81788589859A859E
:103E20000E944900DC01CB019E838D838D819E81A0
:103E30009A83898389819A810197F1F79A8389838B
:103E4000EA960FB6F894DEBF0FBECDBFCF91DF91DB
:103E50001F910895DF93CF93CDB7DEB7E8970FB6E4
:103E6000F894DEBF0FBECDBF80E090E0A0EFB1E4DC
:103E70008DAB9EABAFABB8AF6DA97EA98FA998AD46
:103E800020E030E04AE755E40E94040FDC01CB015A
:103E900089AB9AABABABBCAB69A97AA98BA99CA93E
:103EA00020E030E040E85FE30E945E1088232CF4BD
:103EB00081E090E098AB8FA73FC069A97AA98BA950
:103EC0009CA920E03FEF4FE757E40E94FE0F181631
:103ED0004CF56DA97EA98FA998AD20E030E040E2B5
:103EE00051E40E94040FDC01CB01BC01CD010E9412
:103EF0004900DC01CB0198AB8FA70FC080E991E0AE
:103F00009EA78DA78DA59EA50197F1F79EA78DA7CA
:103F10008FA598A9019798AB8FA78FA598A900970F
:103F200069F714C069A97AA98BA99CA90E944900C4
:103F3000DC01CB0198AB8FA78FA598A99CA78BA775
:103F40008BA59CA50197F1F79CA78BA782E00E9407
:103F50000C1D80E090E0A0E8BFE38FA398A7A9A77D
:103F6000BAA76FA178A589A59AA520E030E04AE715
:103F700055E40E94040FDC01CB018BA39CA3ADA3ED
:103F8000BEA36BA17CA18DA19EA120E030E040E802
:103F90005FE30E945E1088232CF481E090E09AA3F6
:103FA00089A33FC06BA17CA18DA19EA120E03FEF22
:103FB0004FE757E40E94FE0F18164CF56FA178A545
:103FC00089A59AA520E030E040E251E40E94040F68
:103FD000DC01CB01BC01CD010E944900DC01CB0119
:103FE0009AA389A30FC080E991E098A38F8F8F8D4A
:103FF00098A10197F1F798A38F8F89A19AA10197B2
:104000009AA389A389A19AA1009769F714C06BA10B
:104010007CA18DA19EA10E944900DC01CB019AA345
:1040200089A389A19AA19E8F8D8F8D8D9E8D0197D9
:10403000F1F79E8F8D8F88E20E940C1D80E090E04A
:10404000A0E8BFE3898F9A8FAB8FBC8F698D7A8D83
:104050008B8D9C8D20E030E04AE755E40E94040FF0
:10406000DC01CB018D8B9E8BAF8BB88F6D897E89E8
:104070008F89988D20E030E040E85FE30E945E1079
:1040800088232CF481E090E09C8B8B8B3FC06D8962
:104090007E898F89988D20E03FEF4FE757E40E949B
:1040A000FE0F18164CF5698D7A8D8B8D9C8D20E056
:1040B00030E040E251E40E94040FDC01CB01BC017E
:1040C000CD010E944900DC01CB019C8B8B8B0FC082
:1040D00080E991E09A8B898B89899A890197F1F718
:1040E0009A8B898B8B899C8901979C8B8B8B8B8975
:1040F0009C89009769F714C06D897E898F89988D96
:104100000E944900DC01CB019C8B8B8B8B899C89A5
:10411000988B8F878F8598890197F1F7988B8F8778
:104120008CE00E940C1D81E00E940C1D86E00E9424
:104130000C1D80E090E0A0E8BFE38B879C87AD87F3
:10414000BE876B857C858D859E8520E030E04AE7C3
:1041500055E40E94040FDC01CB018F839887A98767
:10416000BA876F81788589859A8520E030E040E8BC
:104170005FE30E945E1088232CF481E090E09E8330
:104180008D833FC06F81788589859A8520E03FEFD8
:104190004FE757E40E94FE0F18164CF56B857C859F
:1041A0008D859E8520E030E040E251E40E94040FBE
:1041B000DC01CB01BC01CD010E944900DC01CB0137
:1041C0009E838D830FC080E991E09C838B838B81DC
:1041D0009C810197F1F79C838B838D819E81019750
:1041E0009E838D838D819E81009769F714C06F81B6
:1041F000788589859A850E944900DC01CB019E83E0
:104200008D838D819E819A83898389819A8101978B
:10421000F1F79A838983E8960FB6F894DEBF0FBE54
:10422000CDBFCF91DF9108951F93DF93CF93CDB78B
:10423000DEB7E9970FB6F894DEBF0FBECDBF89AFEA
:1042400081E061E00E94431481E160E00E94431438
:1042500082E061E00E94431489AD86958877182F2B
:10426000166080E00E942E15812B982F80E0692F28
:104270000E94ED1482E060E00E94431480E090E030
:10428000A0E0B0E48DAB9EABAFABB8AF6DA97EA99B
:104290008FA998AD20E030E04AE755E40E94040F72
:1042A000DC01CB0189AB9AABABABBCAB69A97AA9FA
:1042B0008BA99CA920E030E040E85FE30E945E10FB
:1042C00088232CF481E090E098AB8FA73FC069A9C8
:1042D0007AA98BA99CA920E03FEF4FE757E40E9401
:1042E000FE0F18164CF56DA97EA98FA998AD20E098
:1042F00030E040E251E40E94040FDC01CB01BC013C
:10430000CD010E944900DC01CB0198AB8FA70FC003
:1043100080E991E09EA78DA78DA59EA50197F1F755
:104320009EA78DA78FA598A9019798AB8FA78FA55A
:1043300098A9009769F714C069A97AA98BA99CA9C3
:104340000E944900DC01CB0198AB8FA78FA598A9EB
:104350009CA78BA78BA59CA50197F1F79CA78BA782
:1043600082E061E00E94431480E090E0A0E8BFE3B7
:104370008FA398A7A9A7BAA76FA178A589A59AA581
:1043800020E030E04AE755E40E94040FDC01CB0155
:104390008BA39CA3ADA3BEA36BA17CA18DA19EA169
:1043A00020E030E040E85FE30E945E1088232CF4B8
:1043B00081E090E09AA389A33FC06BA17CA18DA16D
:1043C0009EA120E03FEF4FE757E40E94FE0F181632
:1043D0004CF56FA178A589A59AA520E030E040E2D0
:1043E00051E40E94040FDC01CB01BC01CD010E940D
:1043F0004900DC01CB019AA389A30FC080E991E0B9
:1044000098A38F8F8F8D98A10197F1F798A38F8F25
:1044100089A19AA101979AA389A389A19AA100973A
:1044200069F714C06BA17CA18DA19EA10E944900D7
:10443000DC01CB019AA389A389A19AA19E8F8D8FBC
:104440008D8D9E8D0197F1F79E8F8D8F89AD882F71
:1044500090E0880F991F880F991F880F991F887700
:10446000182F166080E00E942E15812B982F80E077
:10447000692F0E94ED1482E060E00E94431480E006
:1044800090E0A0E0B0E4898F9A8FAB8FBC8F698DEC
:104490007A8D8B8D9C8D20E030E04AE755E40E94B8
:1044A000040FDC01CB018D8B9E8BAF8BB88F6D8998
:1044B0007E898F89988D20E030E040E85FE30E949C
:1044C0005E1088232CF481E090E09C8B8B8B3FC0A6
:1044D0006D897E898F89988D20E03FEF4FE757E403
:1044E0000E94FE0F18164CF5698D7A8D8B8D9C8D70
:1044F00020E030E040E251E40E94040FDC01CB01F7
:10450000BC01CD010E944900DC01CB019C8B8B8B4F
:104510000FC080E991E09A8B898B89899A890197EC
:10452000F1F79A8B898B8B899C8901979C8B8B8B5C
:104530008B899C89009769F714C06D897E898F8962
:10454000988D0E944900DC01CB019C8B8B8B8B8961
:104550009C89988B8F878F8598890197F1F7988B25
:104560008F8782E061E00E94431480E090E0A0EA3F
:10457000B0E48B879C87AD87BE876B857C858D85F6
:104580009E8520E030E04AE755E40E94040FDC01FC
:10459000CB018F839887A987BA876F8178858985B2
:1045A0009A8520E030E040E85FE30E945E108823B7
:1045B0002CF481E090E09E838D833FC06F817885ED
:1045C00089859A8520E03FEF4FE757E40E94FE0F70
:1045D00018164CF56B857C858D859E8520E030E036
:1045E00040E251E40E94040FDC01CB01BC01CD018B
:1045F0000E944900DC01CB019E838D830FC080E9BE
:1046000091E09C838B838B819C810197F1F79C8344
:104610008B838D819E8101979E838D838D819E8169
:10462000009769F714C06F81788589859A850E9403
:104630004900DC01CB019E838D838D819E819A830D
:10464000898389819A810197F1F79A838983E99611
:104650000FB6F894DEBF0FBECDBFCF91DF911F9193
:104660000895DF93CF9300D000D0CDB7DEB7898314
:104670006A838A818031C0F48981282F30E03C83AD
:104680002B838B819C81009731F02B813C812130E1
:10469000310531F009C08A8180580E940C1D04C088
:1046A0008A8180540E940C1D0F900F900F900F90E4
:1046B000CF91DF910895DF93CF93CDB7DEB76297A7
:1046C0000FB6F894DEBF0FBECDBF998B888B6A8B77
:1046D0001F861F860EC08F85282F30E08889998914
:1046E000FC01E20FF31F80810E9414218F858F5FF0
:1046F0008F879F858A89981770F380E090E0A0E00B
:10470000B0E48B879C87AD87BE876B857C858D8564
:104710009E8520E030E04AE755E40E94040FDC016A
:10472000CB018F839887A987BA876F817885898520
:104730009A8520E030E040E85FE30E945E10882325
:104740002CF481E090E09E838D833FC06F8178855B
:1047500089859A8520E03FEF4FE757E40E94FE0FDE
:1047600018164CF56B857C858D859E8520E030E0A4
:1047700040E251E40E94040FDC01CB01BC01CD01F9
:104780000E944900DC01CB019E838D830FC080E92C
:1047900091E09C838B838B819C810197F1F79C83B3
:1047A0008B838D819E8101979E838D838D819E81D8
:1047B000009769F714C06F81788589859A850E9472
:1047C0004900DC01CB019E838D838D819E819A837C
:1047D000898389819A810197F1F79A838983629607
:1047E0000FB6F894DEBF0FBECDBFCF91DF91089515
:1047F000DF93CF9300D000D0CDB7DEB78B836C832F
:104800008C81803160F58B81882319F08B81813018
:1048100031F580E40E940C1D1A820CC08A81882F19
:1048200090E0FC01ED55FD4F80810E9414218A81AA
:104830008F5F8A838A81803488F380E80E940C1D10
:104840008B816C810E943123198206C089810E946C
:10485000142189818F5F898389818830B8F30F9013
:104860000F900F900F90CF91DF910895DF93CF932A
:10487000CDB7DEB72F970FB6F894DEBF0FBECDBF12
:104880008F8780E060E00E94312380E690E06DE059
:104890000E945B2381E060E00E9431238F858A3093
:1048A00068F580915603843048F580915603882F2F
:1048B00090E0FC01E75AFC4F8F858083909156036E
:1048C00081E0692F0E94312380915603882F90E068
:1048D000FC01E75AFC4F8081805D0E941421909179
:1048E000560381E0692F0E9431238AE20E9414213D
:1048F000809156038F5F8093560315C08F85833652
:1049000091F480915603882371F080915603815071
:10491000809356039091560381E0692F0E943123C2
:1049200080E20E9414218F858B3269F480915603B6
:10493000843049F481E08093690381E00E940C1D7A
:10494000109256039CC08F858B3209F098C08091DD
:104950005603843009F493C081E060E00E94312363
:104960008EE690E060E10E945B2381E060E00E94BF
:1049700031238AE890E060E10E945B2380E090E0D0
:10498000AAE7B4E48B879C87AD87BE876B857C855F
:104990008D859E8520E030E04AE755E40E94040FB3
:1049A000DC01CB018F839887A987BA876F817885CF
:1049B00089859A8520E030E040E85FE30E945E1040
:1049C00088232CF481E090E09E838D833FC06F812B
:1049D000788589859A8520E03FEF4FE757E40E946C
:1049E000FE0F18164CF56B857C858D859E8520E025
:1049F00030E040E251E40E94040FDC01CB01BC0135
:104A0000CD010E944900DC01CB019E838D830FC044
:104A100080E991E09C838B838B819C810197F1F7E6
:104A20009C838B838D819E8101979E838D838D8155
:104A30009E81009769F714C06F81788589859A8572
:104A40000E944900DC01CB019E838D838D819E8174
:104A50009A83898389819A810197F1F79A8389835F
:104A600081E060E00E9431238EE690E060E10E94E8
:104A70005B2381E060E00E943123109256032F9661
:104A80000FB6F894DEBF0FBECDBFCF91DF91089572
:104A9000DF93CF93CDB7DEB72F970FB6F894DEBF75
:104AA0000FBECDBF8F8780E060E00E9431238BE98D
:104AB00090E060E10E945B2381E060E00E9431238E
:104AC0008F858A3068F580915603843048F580914F
:104AD0005603882F90E0FC01E35AFC4F8F858083BA
:104AE0009091560381E0692F0E94312380915603F3
:104AF000882F90E0FC01E35AFC4F8081805D0E948A
:104B000014219091560381E0692F0E9431238AE29B
:104B10000E941421809156038F5F8093560315C025
:104B20008F85833691F480915603882371F08091AC
:104B300056038150809356039091560381E0692F6C
:104B40000E94312380E20E9414218F858B3209F06C
:104B5000BEC082E0809369031092560319C0809111
:104B60005603882F90E0FC01E35AFC4F208180918E
:104B70005603882F90E0FC01E75AFC4F80812817EC
:104B800011F010926903809156038F5F8093560352
:104B900080915603843018F380916903882309F0CB
:104BA00091C081E060E00E9431238EE690E060E1F8
:104BB0000E945B2381E060E00E9431238CEA90E058
:104BC0006BE00E945B2380E090E0AAE7B4E48B876F
:104BD0009C87AD87BE876B857C858D859E8520E013
:104BE00030E04AE755E40E94040FDC01CB018F83DB
:104BF0009887A987BA876F81788589859A8520E00B
:104C000030E040E85FE30E945E1088232CF481E0EE
:104C100090E09E838D833FC06F81788589859A85DA
:104C200020E03FEF4FE757E40E94FE0F18164CF5C7
:104C30006B857C858D859E8520E030E040E251E4E7
:104C40000E94040FDC01CB01BC01CD010E94490090
:104C5000DC01CB019E838D830FC080E991E09C83B2
:104C60008B838B819C810197F1F79C838B838D8152
:104C70009E8101979E838D838D819E81009769F728
:104C800014C06F81788589859A850E944900DC016E
:104C9000CB019E838D838D819E819A8389838981B7
:104CA0009A810197F1F79A83898381E060E00E94FD
:104CB00031238EE690E060E10E945B2381E060E0BA
:104CC0000E9431231092560381E00E940C1D2F9602
:104CD0000FB6F894DEBF0FBECDBFCF91DF91089520
:104CE000DF93CF93CDB7DEB72E970FB6F894DEBF24
:104CF0000FBECDBF80915603882309F09BC081E091
:104D00000E940C1D80E060E00E94312388EB90E05F
:104D10006AE00E945B2381E060E00E94312383EC23
:104D200090E068E00E945B2381E06AE00E9431230A
:104D30008CEC90E066E00E945B2382E068E00E94D9
:104D4000ED1480E090E8ABE3B5E48B879C87AD87FA
:104D5000BE876B857C858D859E8520E030E04AE7A7
:104D600055E40E94040FDC01CB018F839887A9874B
:104D7000BA876F81788589859A8520E030E040E8A0
:104D80005FE30E945E1088232CF481E090E09E8314
:104D90008D833FC06F81788589859A8520E03FEFBC
:104DA0004FE757E40E94FE0F18164CF56B857C8583
:104DB0008D859E8520E030E040E251E40E94040FA2
:104DC000DC01CB01BC01CD010E944900DC01CB011B
:104DD0009E838D830FC080E991E09C838B838B81C0
:104DE0009C810197F1F79C838B838D819E81019734
:104DF0009E838D838D819E81009769F714C06F819A
:104E0000788589859A850E944900DC01CB019E83C3
:104E10008D838D819E819A83898389819A8101976F
:104E2000F1F79A83898382E060E00E94ED1481E0CB
:104E3000809356032E960FB6F894DEBF0FBECDBFFB
:104E4000CF91DF910895DF93CF93CDB7DEB72E9743
:104E50000FB6F894DEBF0FBECDBF82E060E10E94C6
:104E6000ED1480E090E8ABE3B5E48B879C87AD87D9
:104E7000BE876B857C858D859E8520E030E04AE786
:104E800055E40E94040FDC01CB018F839887A9872A
:104E9000BA876F81788589859A8520E030E040E87F
:104EA0005FE30E945E1088232CF481E090E09E83F3
:104EB0008D833FC06F81788589859A8520E03FEF9B
:104EC0004FE757E40E94FE0F18164CF56B857C8562
:104ED0008D859E8520E030E040E251E40E94040F81
:104EE000DC01CB01BC01CD010E944900DC01CB01FA
:104EF0009E838D830FC080E991E09C838B838B819F
:104F00009C810197F1F79C838B838D819E81019712
:104F10009E838D838D819E81009769F714C06F8178
:104F2000788589859A850E944900DC01CB019E83A2
:104F30008D838D819E819A83898389819A8101974E
:104F4000F1F79A83898382E060E00E94ED1485E0A6
:104F50008093690381E00E940C1D109256032E96E7
:104F60000FB6F894DEBF0FBECDBFCF91DF9108958D
:104F7000DF93CF93CDB7DEB72F970FB6F894DEBF90
:104F80000FBECDBF8F8780E060E00E94312383EDAC
:104F900090E06FE00E945B2381E060E00E9431239B
:104FA0008F858A3068F580915603843048F580916A
:104FB0005603882F90E0FC01EF59FC4F8F858083CA
:104FC0009091560381E0692F0E943123809156030E
:104FD000882F90E0FC01EF59FC4F8081805D0E949A
:104FE00014219091560381E0692F0E9431238AE2B7
:104FF0000E941421809156038F5F8093560315C041
:105000008F85833691F480915603882371F08091C7
:1050100056038150809356039091560381E0692F87
:105020000E94312380E20E9414218F858B3209F087
:10503000C7C082E080936903809158038F5F80939B
:105040005803109256031AC080915603882F90E09F
:10505000FC01EF59FC4F208180915603882F90E08E
:10506000FC01E75AFC4F8081281719F085E08093F6
:105070006903809156038F5F809356038091560396
:10508000843010F380916903853009F092C081E08B
:1050900060E00E9431238EE690E060E10E945B2395
:1050A00081E060E00E9431238CEA90E06BE00E9496
:1050B0005B2380E090E0AAE7B4E48B879C87AD8710
:1050C000BE876B857C858D859E8520E030E04AE734
:1050D00055E40E94040FDC01CB018F839887A987D8
:1050E000BA876F81788589859A8520E030E040E82D
:1050F0005FE30E945E1088232CF481E090E09E83A1
:105100008D833FC06F81788589859A8520E03FEF48
:105110004FE757E40E94FE0F18164CF56B857C850F
:105120008D859E8520E030E040E251E40E94040F2E
:10513000DC01CB01BC01CD010E944900DC01CB01A7
:105140009E838D830FC080E991E09C838B838B814C
:105150009C810197F1F79C838B838D819E810197C0
:105160009E838D838D819E81009769F714C06F8126
:10517000788589859A850E944900DC01CB019E8350
:105180008D838D819E819A83898389819A810197FC
:10519000F1F79A83898381E060E00E9431238EE6F3
:1051A00090E060E10E945B2381E060E00E94312397
:1051B00005C01092580381E00E940C1D1092560306
:1051C00080915803833041F486E08093690381E045
:1051D0000E940C1D109258032F960FB6F894DEBF54
:1051E0000FBECDBFCF91DF910895DF93CF93CDB7A1
:1051F000DEB72E970FB6F894DEBF0FBECDBF80E0AE
:1052000066E00E94F82382E060E20E94ED1480E0F4
:1052100090E8ABE3B5E48B879C87AD87BE876B8551
:105220007C858D859E8520E030E04AE755E40E942C
:10523000040FDC01CB018F839887A987BA876F8120
:10524000788589859A8520E030E040E85FE30E9418
:105250005E1088232CF481E090E09E838D833FC014
:105260006F81788589859A8520E03FEF4FE757E485
:105270000E94FE0F18164CF56B857C858D859E85EA
:1052800020E030E040E251E40E94040FDC01CB0159
:10529000BC01CD010E944900DC01CB019E838D83BE
:1052A0000FC080E991E09C838B838B819C81019767
:1052B000F1F79C838B838D819E8101979E838D83E3
:1052C0008D819E81009769F714C06F8178858985EB
:1052D0009A850E944900DC01CB019E838D838D81DC
:1052E0009E819A83898389819A810197F1F79A83B4
:1052F000898382E060E00E94ED1487E08093690377
:1053000081E00E940C1D109257032E960FB6F89460
:10531000DEBF0FBECDBFCF91DF910895DF93CF9356
:10532000CDB7DEB727970FB6F894DEBF0FBECDBF5F
:105330008F8380915703882349F480E060E00E94C6
:10534000312383EE90E06FE00E945B23909157033E
:1053500081E0692F0E9431238F818A3098F58091F6
:105360005603843078F580915603882F90E0FC0135
:10537000EB59FC4F8F8180839091560380915703A6
:10538000980F81E0692F0E94312380915603882F66
:1053900090E0FC01EB59FC4F8081805D0E9414215C
:1053A0009091560380915703980F81E0692F0E94D6
:1053B00031238AE20E941421809156038F5F8093EB
:1053C000560318C08F818336A9F480915603882331
:1053D00089F0809156038150809356039091560333
:1053E00080915703980F81E0692F0E94312380E25A
:1053F0000E9414218F818B3209F04AC010926903F8
:1054000088EE93E09C838B8386EE97E09E838D836A
:105410001092560334C08D819E812B813C81B9014D
:105420000E940132CB019A83898380915603882F91
:1054300090E0FC01EB59FC4F8081282F30E08981FE
:105440009A812817390719F088E0809369038D81C4
:105450009E812B813C81B9010E9401329E838D8304
:105460008B819C812AE030E0B9010E940132CB019E
:105470009C838B83809156038F5F8093560380912A
:105480005603843040F21092560381E00E940C1DB6
:1054900027960FB6F894DEBF0FBECDBFCF91DF9138
:1054A0000895DF93CF93CDB7DEB780E060E00E9430
:1054B000312383EF90E06FE00E945B2381E060E0A6
:1054C0000E94312383E091E065E00E945B2387E046
:1054D0008093570387E080936903CF91DF9108950C
:1054E000DF93CF93CDB7DEB72F970FB6F894DEBF1B
:1054F0000FBECDBF8F8780E060E00E94312389E03E
:1055000091E06FE00E945B2381E060E00E94312324
:105510008F858A3068F580915603843048F58091F4
:105520005603882F90E0FC01EF59FC4F8F85808354
:105530009091560381E0692F0E9431238091560398
:10554000882F90E0FC01EF59FC4F8081805D0E9424
:1055500014219091560381E0692F0E9431238AE241
:105560000E941421809156038F5F8093560315C0CB
:105570008F85833691F480915603882371F0809152
:1055800056038150809356039091560381E0692F12
:105590000E94312380E20E9414218F858B3209F012
:1055A000C6C010926903809158038F5F809358039F
:1055B000109256031AC080915603882F90E0FC0188
:1055C000EF59FC4F208180915603882F90E0FC0119
:1055D000E75AFC4F8081281719F089E0809369030E
:1055E000809156038F5F80935603809156038430D9
:1055F00010F380916903893009F092C081E060E086
:105600000E9431238EE690E060E10E945B2381E0FE
:1056100060E00E9431238CEA90E06BE00E945B2303
:1056200080E090E0AAE7B4E48B879C87AD87BE87D3
:105630006B857C858D859E8520E030E04AE755E4CA
:105640000E94040FDC01CB018F839887A987BA875A
:105650006F81788589859A8520E030E040E85FE3B6
:105660000E945E1088232CF481E090E09E838D835D
:105670003FC06F81788589859A8520E03FEF4FE7AD
:1056800057E40E94FE0F18164CF56B857C858D85BE
:105690009E8520E030E040E251E40E94040FDC01EE
:1056A000CB01BC01CD010E944900DC01CB019E83EE
:1056B0008D830FC080E991E09C838B838B819C81DB
:1056C0000197F1F79C838B838D819E8101979E8347
:1056D0008D838D819E81009769F714C06F817885D5
:1056E00089859A850E944900DC01CB019E838D83C8
:1056F0008D819E819A83898389819A810197F1F7AF
:105700009A83898381E060E00E9431238EE690E0F5
:1057100060E10E945B2381E060E00E94312305C0CC
:105720001092580381E00E940C1D10925603809144
:105730005803823041F486E08093690381E00E943F
:105740000C1D109258032F960FB6F894DEBF0FBEB3
:10575000CDBFCF91DF910895DF93CF93CDB7DEB763
:105760001092560381E00E940C1D89E0809369032A
:10577000CF91DF910895DF93CF93CDB7DEB788E067
:1057800060E00E94431489E060E00E9443148AE0D4
:1057900060E00E9443148BE060E00E944314CF91CC
:1057A000DF910895DF93CF93CDB7DEB72F970FB674
:1057B000F894DEBF0FBECDBF1F8689C08F85882FAE
:1057C00090E0FC01ED51FD4F808161E00E944314A7
:1057D00080E090E0A0E2B1E48B879C87AD87BE8734
:1057E0006B857C858D859E8520E030E04AE755E419
:1057F0000E94040FDC01CB018F839887A987BA87A9
:105800006F81788589859A8520E030E040E85FE304
:105810000E945E1088232CF481E090E09E838D83AB
:105820003FC06F81788589859A8520E03FEF4FE7FB
:1058300057E40E94FE0F18164CF56B857C858D850C
:105840009E8520E030E040E251E40E94040FDC013C
:10585000CB01BC01CD010E944900DC01CB019E833C
:105860008D830FC080E991E09C838B838B819C8129
:105870000197F1F79C838B838D819E8101979E8395
:105880008D838D819E81009769F714C06F81788523
:1058900089859A850E944900DC01CB019E838D8316
:1058A0008D819E819A83898389819A810197F1F7FD
:1058B0009A8389838F85882F90E0FC01ED51FD4FFD
:1058C000808160E00E9443148F858F5F8F878F8572
:1058D000843008F473CF2F960FB6F894DEBF0FBE56
:1058E000CDBFCF91DF910895DF93CF93CDB7DEB7D2
:1058F0002F970FB6F894DEBF0FBECDBF1F86AFC087
:105900008F85882F90E0FC01E951FD4F8081982F11
:10591000917088E0692F0E9443148F85882F90E052
:10592000FC01E951FD4F80818695982F917089E0A7
:10593000692F0E9443148F85882F90E0FC01E95164
:10594000FD4F808186958695982F91708AE0692F0A
:105950000E9443148F85882F90E0FC01E951FD4F90
:105960008081869586958695982F91708BE0692F1A
:105970000E94431480E090E0A0E2B1E48B879C8712
:10598000AD87BE876B857C858D859E8520E030E068
:105990004AE755E40E94040FDC01CB018F8398870E
:1059A000A987BA876F81788589859A8520E030E05C
:1059B00040E85FE30E945E1088232CF481E090E0D1
:1059C0009E838D833FC06F81788589859A8520E08D
:1059D0003FEF4FE757E40E94FE0F18164CF56B851A
:1059E0007C858D859E8520E030E040E251E40E9478
:1059F000040FDC01CB01BC01CD010E944900DC0198
:105A0000CB019E838D830FC080E991E09C838B83C3
:105A10008B819C810197F1F79C838B838D819E8183
:105A200001979E838D838D819E81009769F714C0B5
:105A30006F81788589859A850E944900DC01CB01B8
:105A40009E838D838D819E819A83898389819A81AA
:105A50000197F1F79A8389838F858F5F8F878F8571
:105A6000883008F44DCF2F960FB6F894DEBF0FBEE6
:105A7000CDBFCF91DF910895AF92BF92CF92DF92C9
:105A8000EF92FF920F931F93DF93CF93CDB7DEB7C3
:105A9000C055D0400FB6F894DEBF0FBECDBF0E94F8
:105AA000FD12FE01EE5BFF4F1082FE01EF5BFF4F28
:105AB00081E08083FE01E05CFF4F10821FAE8DE32A
:105AC0008EAF1CAE1BAE1BAA1CAA1DAA1EAA1FAA23
:105AD00018AE19AE1AAE1BA61CA61DA61EA61FA6A2
