:100000000C942A000C946B180C948F180C944700D5
:100010000C9447000C9447000C9447000C94470044
:100020000C9447000C9447000C9447000C94470034
:100030000C9447000C9447000C9447000C94470024
:100040000C9447000C9447000C9447000C94470014
:100050000C94470011241FBECFE5D8E0DEBFCDBF12
:1000600011E0A0E6B0E0E8E0F2E302C005900D92F6
:10007000AE30B107D9F711E0AEE0B1E001C01D929A
:10008000A537B107E1F70E94B3180C9402190C943C
:100090000000EF92FF920F931F937B018C0120E0F1
:1000A00030E040E05FE40E94490388238CF0C801FF
:1000B000B70120E030E040E05FE40E94C1010E940F
:1000C000A9039B01AC01205030404040504806C07D
:1000D000C801B7010E94A9039B01AC01B901CA0183
:1000E0001F910F91FF90EF900895A0E0B0E0EBE733
:1000F000F0E00C94CB18DC012B01FA019C919230BA
:1001000008F439C1EB018881823008F433C194309E
:1001100069F4843009F02FC111969C91119789815F
:10012000981709F428C1A0E6B0E025C1843009F48D
:1001300021C18230A9F4923009F01DC19A01AD01AC
:1001400088E0EA010990AE01E90109929E0181501F
:10015000C1F7E201898111969C918923818308C1AD
:10016000923009F407C112962D903C901397EB0141
:100170008A819B811496AD90BD90CD90DC901797AD
:10018000EC80FD800E811F819101281B390BB90184
:1001900037FF04C066277727621B730B6032710537
:1001A0000CF061C0121613066CF537014801062EDB
:1001B00004C096948794779467940A94D2F721E0C8
:1001C00030E040E050E004C0220F331F441F551FB1
:1001D0006A95D2F721503040404050402E213F21B7
:1001E00040235123211531054105510521F021E01E
:1001F00030E040E050E079018A01E628F72808293C
:1002000019293CC0232BD1F1260E371E350146019A
:10021000062E04C096948794779467940A94D2F734
:1002200021E030E040E050E004C0220F331F441FC3
:10023000551F6A95D2F721503040404050402A2146
:100240003B214C215D21211531054105510521F04E
:1002500021E030E040E050E059016A01A628B728CB
:10026000C828D9280BC0821593052CF01C01AA249C
:10027000BB24650103C0EE24FF24870111969C91E5
:10028000D20111968C91981709F445C0992339F041
:10029000A80197012A193B094C095D0906C0A6016E
:1002A00095012E193F09400B510B57FD08C01182D3
:1002B0003382228224833583468357831DC081E0A5
:1002C00081833382228288279927DC01821B930B4A
:1002D000A40BB50B84839583A683B7830DC0220F2F
:1002E000331F441F551F24833583468357838281E0
:1002F000938101979383828324813581468157813D
:10030000DA01C9010197A109B1098F5F9F4FAF4F72
:10031000BF4328F30BC0918333822282EA0CFB1C7B
:100320000C1D1D1DE482F5820683178383E0808304
:10033000248135814681578157FF1AC0C901AA27F8
:1003400097FDA095BA2F81709070A070B0705695EF
:10035000479537952795822B932BA42BB52B848318
:100360009583A683B7838281938101969383828349
:10037000DF0101C0D201CD01CDB7DEB7E2E10C94BF
:10038000E718A0E2B0E0E7ECF1E00C94D71869833D
:100390007A838B839C832D833E834F835887E9E048
:1003A000EE2EF12CEC0EFD1ECE010196B7010E943F
:1003B000D2048E010F5E1F4FCE010596B8010E9438
:1003C000D2048A8991E089278A8BC701B801AE01DE
:1003D000475E5F4F0E9475000E94FD03A096E6E015
:1003E0000C94F318A0E2B0E0E8EFF1E00C94D71819
:1003F00069837A838B839C832D833E834F835887C5
:10040000F9E0EF2EF12CEC0EFD1ECE010196B701A6
:100410000E94D2048E010F5E1F4FCE010596B801D7
:100420000E94D204C701B801AE01475E5F4F0E942F
:1004300075000E94FD03A096E6E00C94F318A0E27C
:10044000B0E0E5E2F2E00C94CB1869837A838B8309
:100450009C832D833E834F835887CE010196BE0136
:10046000675F7F4F0E94D204CE010596BE016F5E8A
:100470007F4F0E94D2049985923088F0898982301A
:10048000C8F0943019F4823051F404C0843029F457
:10049000923081F480E690E0C6C0923049F420E0CA
:1004A0009A858A89981321E02A87CE010996BBC0D4
:1004B000823049F420E09A858A89981321E02A8BBA
:1004C000CE014196B0C02D843E844F8458886D88FB
:1004D0007E888F88988CEE24FF248701AA24BB2471
:1004E000650140E050E060E070E0E0E0F0E0C10174
:1004F00081709070892BE9F0E60CF71C081D191D1E
:100500009A01AB012A0D3B1D4C1D5D1D80E090E062
:10051000A0E0B0E0E614F7040805190520F481E036
:1005200090E0A0E0B0E0BA01A901480F591F6A1F8E
:100530007B1FAA0CBB1CCC1CDD1C97FE08C081E0F5
:1005400090E0A0E0B0E0A82AB92ACA2ADB2A3196B6
:10055000E032F10549F0660C771C881C991C569412
:10056000479437942794C3CFFA85EA892B893C892D
:100570008B859C85280F391F2E5F3F4F17C0CA01FE
:1005800081709070892B61F016950795F794E79428
:1005900080E090E0A0E0B0E8E82AF92A0A2B1B2BC3
:1005A00076956795579547952F5F3F4F77FDE7CF36
:1005B0000CC0440F551F661F771F17FD4160EE0CDE
:1005C000FF1C001F111F21503040403090E05907A0
:1005D00090E0690790E4790760F32B8F3C8FDB0193
:1005E000CA018F779070A070B07080349105A1051A
:1005F000B10561F447FD0AC0E114F10401051105DC
:1006000029F0405C5F4F6F4F7F4F40781A8EFE1786
:1006100011F081E08A8F4D8F5E8F6F8F78A383E01A
:10062000898FCE0149960E94FD03A096E2E10C94C9
:10063000E718A8E1B0E0EFE1F3E00C94D718698384
:100640007A838B839C832D833E834F83588789E0F5
:10065000E82EF12CEC0EFD1ECE010196B7010E9492
:10066000D2048E010F5E1F4FCE010596B8010E9485
:10067000D2048985823040F08989823028F0C70110
:10068000B8010E944A0501C08FEF6896E6E00C941D
:10069000F318A8E1B0E0EFE4F3E00C94D718698315
:1006A0007A838B839C832D833E834F83588789E095
:1006B000E82EF12CEC0EFD1ECE010196B7010E9432
:1006C000D2048E010F5E1F4FCE010596B8010E9425
:1006D000D2048985823040F08989823028F0C701B0
:1006E000B8010E944A0501C08FEF6896E6E00C94BD
:1006F000F318A8E1B0E0EFE7F3E00C94D7186983B2
:100700007A838B839C832D833E834F83588789E034
:10071000E82EF12CEC0EFD1ECE010196B7010E94D1
:10072000D2048E010F5E1F4FCE010596B8010E94C4
:10073000D2048985823040F08989823028F0C7014F
:10074000B8010E944A0501C081E06896E6E00C9479
:10075000F318ACE0B0E0EFEAF3E00C94DB18698347
:100760007A838B839C83CE010196BE016B5F7F4FA2
:100770000E94D2048D81823061F1823050F1843048
:1007800021F48E81882351F12EC02F81388537FDC9
:1007900020C06E812F3131051CF06623F9F023C093
:1007A0008EE190E0821B930B29853A854B855C8511
:1007B00004C056954795379527958A95D2F76623B5
:1007C000B1F050954095309521953F4F4F4F5F4F79
:1007D0000EC020E030E040E050E009C02FEF3FEFD6
:1007E0004FEF5FE704C020E030E040E050E8B9019F
:1007F000CA012C96E2E00C94F718DF92EF92FF9278
:100800000F931F93FC01E480F58006811781D1804E
:100810008081823048F480E090E0A0E1B0E0E82AF6
:10082000F92A0A2B1B2BA5C0843009F49FC0823003
:1008300021F4EE24FF24870105C0E114F104010531
:10084000110519F4E0E0F0E096C0628173819FEF3A
:10085000623879070CF05BC022E83FEF261B370BAC
:100860002A3131052CF020E030E040E050E02AC091
:10087000B801A701022E04C0769567955795479554
:100880000A94D2F781E090E0A0E0B0E004C0880FC5
:10089000991FAA1FBB1F2A95D2F70197A109B10979
:1008A0008E219F21A023B1230097A105B10521F03E
:1008B00081E090E0A0E0B0E09A01AB01282B392B59
:1008C0004A2B5B2BDA01C9018F779070A070B07052
:1008D00080349105A105B10539F427FF09C0205CDA
:1008E0003F4F4F4F5F4F04C0215C3F4F4F4F5F4F13
:1008F000E0E0F0E02030A0E03A07A0E04A07A0E402
:100900005A0710F0E1E0F0E079018A0127C0603871
:10091000710564F5FB01E158FF4FD801C7018F77DE
:100920009070A070B07080349105A105B10539F4C4
:10093000E7FE0DC080E490E0A0E0B0E004C08FE3EB
:1009400090E0A0E0B0E0E80EF91E0A1F1B1F17FFA1
:1009500005C016950795F794E794319687E01695AC
:100960000795F794E7948A95D1F705C0EE24FF2404
:100970008701EFEFF0E06E2F679566276795902F60
:100980009F77D794DD24D7948E2F8695492F462BB9
:10099000582F5D29B701CA011F910F91FF90EF9069
:1009A000DF900895FC01DB01408151812281622F9B
:1009B0006F7770E0221F2227221F9381892F880FD3
:1009C000822B282F30E0991F9927991F11969C930D
:1009D000119721153105A9F54115510561057105DD
:1009E00011F482E037C082E89FEF13969C938E93B8
:1009F00012979A01AB0167E0220F331F441F551F66
:100A00006A95D1F783E08C930DC0220F331F441FEA
:100A1000551F12968D919C911397019713969C9355
:100A20008E931297203080E0380780E0480780E4FA
:100A3000580758F314962D933D934D935C93179755
:100A400008952F3F310579F4411551056105710570
:100A500019F484E08C93089564FF03C081E08C93C3
:100A600012C01C9210C02F57304013963C932E9307
:100A7000129783E08C9387E0440F551F661F771F02
:100A80008A95D1F7706414964D935D936D937C9322
:100A9000179708951F93DC01FB019C91923008F495
:100AA00047C08081823008F443C0943051F41196DD
:100AB0001C91843099F58181682F70E0611B710968
:100AC0003FC0843021F0923031F48230B9F181811D
:100AD000882389F12DC011961C9111978230F1F075
:100AE00081811817D9F412962D913C911397828128
:100AF00093818217930794F028173907BCF0149656
:100B00008D919D910D90BC91A02D248135814681C0
:100B10005781281739074A075B0718F4112341F05A
:100B20000AC082179307A407B50740F4112319F0F0
:100B300061E070E005C06FEF7FEF02C060E070E041
:100B4000CB011F910895DF93CF93CDB7DEB7E7E2D6
:100B5000F0E081E08083A7E2B0E0E7E2F0E08081AE
:100B600080648C93A7E2B0E0E7E2F0E080818F77C9
:100B70008C93A6E2B0E0E6E2F0E0808181608C93A5
:100B8000A6E2B0E0E6E2F0E0808182608C93A6E22B
:100B9000B0E0E6E2F0E0808184608C93A6E2B0E011
:100BA000E6E2F0E0808180688C93A6E2B0E0E6E2C5
:100BB000F0E0808188608C93AFE5B0E0EFE5F0E095
:100BC000808180688C93CF91DF910895DF93CF93DC
:100BD0000F92CDB7DEB78983A7E2B0E0E7E2F0E09D
:100BE0008081807F8C93A7E2B0E0E7E2F0E0908123
:100BF0008981892B8C93A6E2B0E0E6E2F0E0808167
:100C000080648C930F90CF91DF910895DF93CF9301
:100C100000D0CDB7DEB7E4E2F0E0808191819A8325
:100C2000898389819A810F900F90CF91DF910895E8
:100C3000DF93CF93CDB7DEB76A970FB6F894DEBFD8
:100C40000FBECDBF9E012C5F3F4F3F8B2E8B82EAA4
:100C500090E0998F888F90E19A8FE88DF98D0080D0
:100C6000288D398D2F5F3F4F398F288FEE89FF896F
:100C700000822E893F892F5F3F4F3F8B2E8B3A8D0D
:100C800031503A8F8A8D882341F71B820AC18B81AC
:100C900087708A838B8186958695869589838B81DB
:100CA000882F90E0FC01E859FF4F8081E82FF0E0A9
:100CB000FD8BEC8B2C893D892130310509F466C010
:100CC0008C899D898330910509F48DC0EC89FD895B
:100CD000309709F0E3C08981882F90E09C01220FB2
:100CE000331FCE010196820F931FFC013396A08122
:100CF000B1818981882F90E09C01220F331FCE01A2
:100D00000196820F931FFC0133960190F081E02D34
:100D10008081482F8A81282F30E081E090E002C056
:100D2000880F991F2A95E2F7809584238C938981F7
:100D3000882F90E004969C01220F331FCE0101966C
:100D4000820F931FFC013396A081B1818981882F86
:100D500090E004969C01220F331FCE010196820F72
:100D6000931FFC0133960190F081E02D8081482F84
:100D70008A81282F30E081E090E0022E02C0880FA7
:100D8000991F0A94E2F7842B8C9388C08981882F5D
:100D900090E09C01220F331FCE010196820F931F1A
:100DA000FC013396A081B1818981882F90E09C015C
:100DB000220F331FCE010196820F931FFC01339641
:100DC0000190F081E02D8081482F8A81282F30E02A
:100DD00081E090E0022E02C0880F991F0A94E2F78A
:100DE000842B8C935BC08981882F90E09C01220F1B
:100DF000331FCE010196820F931FFC013396A08111
:100E0000B1818981882F90E09C01220F331FCE0190
:100E10000196820F931FFC0133960190F081E02D23
:100E20008081482F8A81282F30E081E090E002C045
:100E3000880F991F2A95E2F7809584238C938981E6
:100E4000882F90E004969C01220F331FCE0101965B
:100E5000820F931FFC013396A081B1818981882F75
:100E600090E004969C01220F331FCE010196820F61
:100E7000931FFC0133960190F081E02D8081482F73
:100E80008A81282F30E081E090E0022E02C0880F96
:100E9000991F0A94E2F7809584238C938B818F5F4E
:100EA0008B838B81803208F4F2CE6A960FB6F89469
:100EB000DEBF0FBECDBFCF91DF910895DF93CF93FB
:100EC000CDB7DEB763970FB6F894DEBF0FBECDBFC8
:100ED0008B876C879E012D5F3F4F388B2F8782EB6E
:100EE00090E09A8B898B98E09B8BE989FA89008046
:100EF00029893A892F5F3F4F3A8B298BEF85F889F3
:100F000000822F8538892F5F3F4F388B2F873B8991
:100F100031503B8B8B89882341F78B8587708A837F
:100F20008B8586958695869589838C85E82FF0E05C
:100F3000FE87ED872D853E852115310531F08D85A4
:100F40009E858130910579F15AC08981882F90E082
:100F50009C01220F331FCE010196820F931FFC01CB
:100F60003296A081B1818981882F90E09C01220F67
:100F7000331FCE010196820F931FFC013296019020
:100F8000F081E02D8081482F8A81282F30E081E098
:100F900090E0022E02C0880F991F0A94E2F7809514
:100FA00084238C932CC08981882F90E09C01220F90
:100FB000331FCE010196820F931FFC013296A08150
:100FC000B1818981882F90E09C01220F331FCE01CF
:100FD0000196820F931FFC0132960190F081E02D63
:100FE0008081482F8A81282F30E081E090E0022E16
:100FF00002C0880F991F0A94E2F7842B8C936396A2
:101000000FB6F894DEBF0FBECDBFCF91DF9108952C
:10101000DF93CF9300D000D0CDB7DEB789836A834A
:101020008981282F30E03C832B838B819C81813008
:101030009105D1F02B813C81223031052CF48B813C
:101040009C81009761F01EC02B813C8122303105CC
:1010500081F08B819C818330910581F013C0EBE39B
:10106000F0E08A8180830EC0E8E3F0E08A8180832B
:1010700009C0E5E3F0E08A81808304C0E2E3F0E0A8
:101080008A8180830F900F900F900F90CF91DF9106
:101090000895DF93CF93CDB7DEB761970FB6F8947D
:1010A000DEBF0FBECDBF8C871982AE014C5F5F4F94
:1010B0005E874D878AEB90E0988B8F8798E0998BBD
:1010C000EF85F88900804F8558894F5F5F4F588BB7
:1010D0004F87ED85FE8500824D855E854F5F5F4FB2
:1010E0005E874D8759895150598B8989882341F7EB
:1010F0008C8587708B838C858695869586958A836B
:101100008A81882F90E09C01220F331FCE01019627
:10111000820F931FFC0133960190F081E02D8081B6
:10112000282F30E08B81882F90E0F90102C0F595DF
:10113000E7958A95E2F7CF0181708983898161966D
:101140000FB6F894DEBF0FBECDBFCF91DF910895EB
:10115000DF93CF9300D000D0CDB7DEB78A8319825A
:101160008A81282F30E03C832B838B819C818130C6
:101170009105D1F02B813C81223031052CF48B81FB
:101180009C81009761F01EC02B813C81223031058B
:1011900081F08B819C818330910581F013C0E9E35C
:1011A000F0E0808189830EC0E6E3F0E080818983EE
:1011B00009C0E3E3F0E08081898304C0E0E3F0E06C
:1011C0008081898389810F900F900F900F90CF912C
:1011D000DF910895DF93CF930F92CDB7DEB7898368
:1011E000ABE5B0E0EBE5F0E0808180688C93ABE5A7
:1011F000B0E0EBE5F0E0808180648C938981882306
:10120000E9F4A5E5B0E0E5E5F0E080818E7F8C9320
:10121000A5E5B0E0E5E5F0E0808182608C93A5E58E
:10122000B0E0E5E5F0E080818B7F8C93A5E5B0E050
:10123000E5E5F0E0808188608C931FC08981813072
:10124000E1F4A5E5B0E0E5E5F0E0808181608C9314
:10125000A5E5B0E0E5E5F0E0808182608C93A5E54E
:10126000B0E0E5E5F0E0808184608C93A5E5B0E036
:10127000E5E5F0E0808188608C93AFE5B0E0EFE5D4
:10128000F0E0808180688C930F90CF91DF9108957A
:10129000DF93CF93CDB7DEB7AFE5B0E0EFE5F0E099
:1012A00080818F778C93ABE5B0E0EBE5F0E0808157
:1012B0008F778C93ABE5B0E0EBE5F0E080818F7B3E
:1012C0008C93CF91DF910895DF93CF93CDB7DEB7A5
:1012D000ADE2B0E0EDE2F0E0808181608C93ADE2C0
:1012E000B0E0EDE2F0E080818D7F8C93AEE2B0E083
:1012F000EEE2F0E0808181608C93ADE2B0E0EDE25F
:10130000F0E0808180628C93ADE2B0E0EDE2F0E04D
:101310008081877F8C93ADE2B0E0EDE2F0E08081E8
:101320008B7F8C93ADE2B0E0EDE2F0E080818061F4
:101330008C93ADE2B0E0EDE2F0E0808180648C93CC
:10134000CF91DF910895DF93CF93CDB7DEB7ADE2B4
:10135000B0E0EDE2F0E0808181608C93ADE2B0E03E
:10136000EDE2F0E080818D7F8C93AEE2B0E0EEE2C2
:10137000F0E0808181608C93ADE2B0E0EDE2F0E0DE
:10138000808180628C93ADE2B0E0EDE2F0E080819C
:10139000877F8C93ADE2B0E0EDE2F0E080818B7F5F
:1013A0008C93ADE2B0E0EDE2F0E080818F7E8C9333
:1013B000ADE2B0E0EDE2F0E0808180648C93CF910B
:1013C000DF910895DF93CF930F92CDB7DEB7898376
:1013D000EFE2F0E089818083EEE2F0E08081882313
:1013E000DCF70F90CF91DF910895DF93CF93CDB7C6
:1013F000DEB7EEE2F0E080818823DCF7EFE2F0E098
:101400008081CF91DF910895DF93CF93CDB7DEB781
:10141000A3E5B0E0E3E5F0E0808188608C93A3E58C
:10142000B0E0E3E5F0E0808180648C93A3E5B0E078
:10143000E3E5F0E080818F7E8C93A3E5B0E0E3E507
:10144000F0E0808180628C93A9E5B0E0E9E5F0E00E
:10145000808182608C93AFE5B0E0EFE5F0E08081C1
:1014600080688C93A3E5B0E0E3E5F0E080818160E3
:101470008C93A3E5B0E0E3E5F0E080818D7F8C9371
:10148000A3E5B0E0E3E5F0E0808184608C93CF9148
:10149000DF910895DF93CF93CDB7DEB7AFE4B0E02F
:1014A000EFE4F0E080818E7F8C93AFE4B0E0EFE476
:1014B000F0E080818D7F8C93AEE4B0E0EEE4F0E06C
:1014C0008081877F8C93AEE4B0E0EEE4F0E0808131
:1014D0008F7E8C93AFE4B0E0EFE4F0E080818F7E0C
:1014E0008C93AFE4B0E0EFE4F0E080818F7D8C93EB
:1014F000AFE4B0E0EFE4F0E080818F7B8C93AFE469
:10150000B0E0EFE4F0E080818F778C93A9E5B0E064
:10151000E9E5F0E0808184608C93AFE5B0E0EFE531
:10152000F0E0808180688C93AEE4B0E0EEE4F0E01F
:10153000808181608C93AEE4B0E0EEE4F0E08081E5
:101540008D7F8C93AEE4B0E0EEE4F0E080818460C7
:101550008C93CF91DF910895DF93CF93CDB7DEB712
:10156000E0E2F0E083E08083A1E2B0E0E1E2F0E0DD
:1015700080818E7F8C93A1E2B0E0E1E2F0E0808197
:101580008D7F8C93A6E5B0E0E6E5F0E08081846095
:101590008C93CF91DF910895DF93CF930F92CDB7C6
:1015A000DEB78983E2E2F0E08981880F8083A2E2DE
:1015B000B0E0E2E2F0E080818E7F8C93E0E2F0E048
:1015C00083E08083A1E2B0E0E1E2F0E080818E7F01
:1015D0008C93A1E2B0E0E1E2F0E080818D7F8C931A
:1015E000A6E5B0E0E6E5F0E0808180648C93A6E5B6
:1015F000B0E0E6E5F0E0808184608C93E6E5F0E021
:1016000080818823DCF70F90CF91DF910895DF93DD
:10161000CF9300D0CDB7DEB789836A83A6E5B0E06B
:10162000E6E5F0E0808180628C93A6E5B0E0E6E537
:10163000F0E0808184608C93A6E5B0E0E6E5F0E020
:10164000808180688C93E6E5F0E080818823DCF778
:10165000E3E2F0E08981882F90E0880F991F982FAE
:101660008A81892B8083A6E5B0E0E6E5F0E0808101
:101670008F7D8C93A6E5B0E0E6E5F0E080818068A0
:101680008C93A6E5B0E0E6E5F0E0808184608C9381
:10169000E6E5F0E080818823DCF70F900F90CF9192
:1016A000DF910895DF93CF93CDB7DEB7A6E5B0E025
:1016B000E6E5F0E0808180618C93A6E5B0E0E6E5A8
:1016C000F0E0808184608C93A6E5B0E0E6E5F0E090
:1016D000808180688C93CF91DF910895DF93CF93C1
:1016E00000D0CDB7DEB789836A83A6E5B0E0E6E532
:1016F000F0E0808180628C93A6E5B0E0E6E5F0E062
:10170000808184608C93A6E5B0E0E6E5F0E080811E
:1017100080688C93E6E5F0E080818823DCF7E3E2E3
:10172000F0E08981882F90E0880F991F982F8A8197
:10173000892B8083A6E5B0E0E6E5F0E080818F7D2F
:101740008C93A6E5B0E0E6E5F0E0808180688C93BC
:10175000A6E5B0E0E6E5F0E0808184608C93E6E504
:10176000F0E080818823DCF70F900F90CF91DF911C
:101770000895DF93CF93CDB7DEB7A6E5B0E0E6E5F9
:10178000F0E0808180648C93A6E5B0E0E6E5F0E0CF
:10179000808184608C93A6E5B0E0E6E5F0E080818E
:1017A00080688C93E6E5F0E080818823DCF7A8E38D
:1017B000B0E0E8E3F0E0908181E089278C93E3E2F8
:1017C000F0E08081CF91DF910895DF93CF93CDB783
:1017D000DEB7A6E5B0E0E6E5F0E080818F7B8C9394
:1017E000A6E5B0E0E6E5F0E0808184608C93A6E5B4
:1017F000B0E0E6E5F0E0808180688C93E6E5F0E01B
:1018000080818823DCF7E3E2F0E08081CF91DF91F3
:101810000895DF93CF930F92CDB7DEB78983E3E2CC
:10182000F0E089818083A6E5B0E0E6E5F0E0808124
:1018300080648C93A6E5B0E0E6E5F0E0808184600A
:101840008C93A6E5B0E0E6E5F0E0808180688C93BB
:10185000E6E5F0E080818823DCF70F90CF91DF91FF
:101860000895DF93CF930F92CDB7DEB78983E3E27C
:10187000F0E089818083A6E5B0E0E6E5F0E08081D4
:101880008F7B8C93A6E5B0E0E6E5F0E08081846094
:101890008C93A6E5B0E0E6E5F0E0808180688C936B
:1018A000E6E5F0E080818823DCF70F90CF91DF91AF
:1018B0000895DF93CF93CDB7DEB7E1E2F0E080810A
:1018C000CF91DF910895DF93CF93CDB7DEB76197C6
:1018D0000FB6F894DEBF0FBECDBF998B888B1F86E5
:1018E00080C08F85282F30E088899989FC01E20F1C
:1018F000F31F80810E94090C8F858F5F8F8780E0A6
:1019000090E0A8ECB2E48B879C87AD87BE876B859F
:101910007C858D859E8520E030E04AE755E40E9475
:101920001F02DC01CB018F839887A987BA876F815B
:10193000788589859A8520E030E040E85FE30E9461
:10194000790388232CF481E090E09E838D833FC04F
:101950006F81788589859A8520E03FEF4FE757E4CE
:101960000E94190318164CF56B857C858D859E8524
:1019700020E030E040E251E40E941F02DC01CB0194
:10198000BC01CD010E944900DC01CB019E838D8307
:101990000FC080E991E09C838B838B819C810197B0
:1019A000F1F79C838B838D819E8101979E838D832C
:1019B0008D819E81009769F714C06F817885898534
:1019C0009A850E944900DC01CB019E838D838D8125
:1019D0009E819A83898389819A810197F1F79A83FD
:1019E00089838F85282F30E088899989FC01E20F4F
:1019F000F31F8081882309F074CF8F85282F30E072
:101A000088899989FC01E20FF31F80810E94090CEB
:101A100061960FB6F894DEBF0FBECDBFCF91DF91B8
:101A20000895DF93CF9300D00F92CDB7DEB71B821E
:101A30001A8219820E94B90B8A831AC08981882F61
:101A400090E0FC01E15FFE4F8A8180838981882FCD
:101A500090E0FC01E15FFE4F80810E94C8130E946C
:101A6000B90B8A838B818F5F8B8389818F5F898399
:101A70008A81882319F08B81823301F78FE091E00E
:101A80000F900F900F90CF91DF910895DF93CF9338
:101A9000CDB7DEB7E9E2F0E087E68083A0E4B0E00E
:101AA000E0E4F0E0808182608C93A0E4B0E0E0E4C8
:101AB000F0E0808184608C93AAE2B0E0EAE2F0E09A
:101AC00080818B7F8C93A0E4B0E0E0E4F0E0808143
:101AD00088608C93A0E4B0E0E0E4F0E080818F7E49
:101AE0008C93A0E4B0E0E0E4F0E080818F7D8C9303
:101AF000A0E4B0E0E0E4F0E080818F7B8C93CF91B4
:101B0000DF910895DF93CF930F92CDB7DEB789832E
:101B1000AAE2B0E0EAE2F0E0808188608C93EBE238
:101B2000F0E08081829586958770882F90E08170A3
:101B300090700097A1F3ECE2F0E0898180830F9030
:101B4000CF91DF910895DF93CF93CDB7DEB7AAE2AF
:101B5000B0E0EAE2F0E0808180618C93EBE2F0E0BB
:101B600080818823DCF7ABE3B0E0EBE3F0E0908129
:101B700081E089278C93ECE2F0E08081CF91DF91C6
:101B80000895DF93CF93CDB7DEB7AAE2B0E0EAE2E3
:101B9000F0E0808180618C93AAE2B0E0EAE2F0E0BC
:101BA000808180688C93AFE5B0E0EFE5F0E0808164
:101BB00080688C93CF91DF910895DF93CF93CDB759
:101BC000DEB762970FB6F894DEBF0FBECDBF998B1C
:101BD000888B6A8B1F8680C08F85282F30E088898C
:101BE0009989FC01E20FF31F80810E94820D80E041
:101BF00090E0A0E2B1E48B879C87AD87BE876B85C0
:101C00007C858D859E8520E030E04AE755E40E9482
:101C10001F02DC01CB018F839887A987BA876F8168
:101C2000788589859A8520E030E040E85FE30E946E
:101C3000790388232CF481E090E09E838D833FC05C
:101C40006F81788589859A8520E03FEF4FE757E4DB
:101C50000E94190318164CF56B857C858D859E8531
:101C600020E030E040E251E40E941F02DC01CB01A1
:101C7000BC01CD010E944900DC01CB019E838D8314
:101C80000FC080E991E09C838B838B819C810197BD
:101C9000F1F79C838B838D819E8101979E838D8339
:101CA0008D819E81009769F714C06F817885898541
:101CB0009A850E944900DC01CB019E838D838D8132
:101CC0009E819A83898389819A810197F1F79A830A
:101CD00089838F858F5F8F879F858A89981708F4FE
:101CE0007BCF62960FB6F894DEBF0FBECDBFCF910B
:101CF000DF9108950F931F93DF93CF930F92CDB78A
:101D0000DEB719828981082F10E00E94A30DF80127
:101D1000EF5BFE4F808317C08981882F90E0FC0124
:101D2000EF5BFE4F8081882F90E00E94C81389816D
:101D30008F5F89838981082F10E00E94A30DF8012D
:101D4000EF5BFE4F80838981823349F08981882F40
:101D500090E0FC01EF5BFE4F80818823E9F681E48F
:101D600091E00F90CF91DF911F910F910895DF9334
:101D7000CF93CDB7DEB7A1E4B0E0E1E4F0E080813D
:101D800081608C93A1E4B0E0E1E4F0E080818260C6
:101D90008C93A1E4B0E0E1E4F0E0808184608C9376
:101DA000A1E4B0E0E1E4F0E0808188608C93CF9121
:101DB000DF910895DF93CF93CDB7DEB7A1E4B0E014
:101DC000E1E4F0E0808188608C93A1E4B0E0E1E49C
:101DD000F0E0808180618C93A1E4B0E0E1E4F0E088
:101DE0008081877F8C93CF91DF910895DF93CF938C
:101DF000CDB7DEB7A895CF91DF910895DF93CF934C
:101E000000D00F92CDB7DEB78DE68B8384E061E022
:101E10000E945E0785E061E00E945E0786E061E067
:101E20000E945E0787E061E00E945E071A8233C06D
:101E30008A818C5F60E00E945E07198221C08981DF
:101E4000865E0E9449088823C1F48A81482F50E0A9
:101E50008981282F30E0CA01880F991F880F991FA8
:101E6000820F931FFC01EF56FF4F80818B83898186
:101E7000865E0E9449088823D1F389818F5F898318
:101E800089818430E0F28A818C5F61E00E945E0784
:101E90008A818F5F8A838A81843050F28B810F9090
:101EA0000F900F90CF91DF910895DF93CF9300D0E3
:101EB00000D0CDB7DEB78DE68C838DE6898384E0D4
:101EC00061E00E945E0785E061E00E945E0786E0B7
:101ED00061E00E945E0787E061E00E945E071B826E
:101EE00043C08B818C5F60E00E945E071A8231C024
:101EF0008A81865E0E944908882341F58B81482F9C
:101F000050E08A81282F30E0CA01880F991F880F7E
:101F1000991F820F931FFC01EF56FF4F8081898329
:101F20009091A1008981981731F4809173018F5F9E
:101F30008093730102C01092730180917301853008
:101F400011F489818C8389818093A1008A818F5FBC
:101F50008A838A81843060F28B818C5F61E00E9489
:101F60005E078B818F5F8B838B81843008F4B9CFC0
:101F70008C810F900F900F900F90CF91DF9108956B
:101F80001F93DF93CF93CDB7DEB7EA970FB6F894E0
:101F9000DEBF0FBECDBF8AAF19AE81E060E00E9408
:101FA0005E0781E160E00E945E0782E061E00E94DE
:101FB0005E078AAD86958877182F146080E00E94AE
:101FC0004908812B89AF80E069AD0E94080882E052
:101FD00060E00E945E0780E090E0A0E0B0E48DAB9E
:101FE0009EABAFABB8AF6DA97EA98FA998AD20E02D
:101FF00030E04AE755E40E941F02DC01CB0189ABC7
:102000009AABABABBCAB69A97AA98BA99CA920E020
:1020100030E040E85FE30E94790388232CF481E0FC
:1020200090E098AB8FA73FC069A97AA98BA99CA91A
:1020300020E03FEF4FE757E40E94190318164CF5D4
:102040006DA97EA98FA998AD20E030E040E251E46F
:102050000E941F02DC01CB01BC01CD010E9449009E
:10206000DC01CB0198AB8FA70FC080E991E09EA760
:102070008DA78DA59EA50197F1F79EA78DA78FA58A
:1020800098A9019798AB8FA78FA598A9009769F792
:1020900014C069A97AA98BA99CA90E944900DC01F6
:1020A000CB0198AB8FA78FA598A99CA78BA78BA5D1
:1020B0009CA50197F1F79CA78BA782E061E00E94A5
:1020C0005E0780E090E0A0E8BFE38FA398A7A9A7F0
:1020D000BAA76FA178A589A59AA520E030E04AE7C4
:1020E00055E40E941F02DC01CB018BA39CA3ADA38E
:1020F000BEA36BA17CA18DA19EA120E030E040E8B1
:102100005FE30E94790388232CF481E090E09AA396
:1021100089A33FC06BA17CA18DA19EA120E03FEFD0
:102120004FE757E40E94190318164CF56FA178A5E4
:1021300089A59AA520E030E040E251E40E941F0208
:10214000DC01CB01BC01CD010E944900DC01CB01C7
:102150009AA389A30FC080E991E098A38F8F8F8DF8
:1021600098A10197F1F798A38F8F89A19AA1019760
:102170009AA389A389A19AA1009769F714C06BA1BA
:102180007CA18DA19EA10E944900DC01CB019AA3F4
:1021900089A389A19AA19E8F8D8F8D8D9E8D019788
:1021A000F1F79E8F8D8F8AAD882F90E0880F991F51
:1021B000880F991F880F991F8877182F146080E067
:1021C0000E944908812B89AF80E069AD0E94080810
:1021D00082E060E00E945E0780E090E0A0E0B0E472
:1021E000898F9A8FAB8FBC8F698D7A8D8B8D9C8DEB
:1021F00020E030E04AE755E40E941F02DC01CB01F9
:102200008D8B9E8BAF8BB88F6D897E898F89988DD2
:1022100020E030E040E85FE30E94790388232CF45B
:1022200081E090E09C8B8B8B3FC06D897E898F898C
:10223000988D20E03FEF4FE757E40E9419031816EE
:102240004CF5698D7A8D8B8D9C8D20E030E040E2DD
:1022500051E40E941F02DC01CB01BC01CD010E94B0
:102260004900DC01CB019C8B8B8B0FC080E991E096
:102270009A8B898B89899A890197F1F79A8B898B37
:102280008B899C8901979C8B8B8B8B899C89009770
:1022900069F714C06D897E898F89988D0E944900E5
:1022A000DC01CB019C8B8B8B8B899C89988B8F87D6
:1022B0008F8598890197F1F7988B8F8782E061E08D
:1022C0000E945E0780E090E0A0EAB0E48B879C87E4
:1022D000AD87BE876B857C858D859E8520E030E04F
:1022E0004AE755E40E941F02DC01CB018F839887E7
:1022F000A987BA876F81788589859A8520E030E043
:1023000040E85FE30E94790388232CF481E090E0A9
:102310009E838D833FC06F81788589859A8520E073
:102320003FEF4FE757E40E94190318164CF56B85F1
:102330007C858D859E8520E030E040E251E40E945E
:102340001F02DC01CB01BC01CD010E944900DC0170
:10235000CB019E838D830FC080E991E09C838B83AA
:102360008B819C810197F1F79C838B838D819E816A
:1023700001979E838D838D819E81009769F714C09C
:102380006F81788589859A850E944900DC01CB019F
:102390009E838D838D819E819A83898389819A8191
:1023A0000197F1F79A838983EA960FB6F894DEBF16
:1023B0000FBECDBFCF91DF911F910895DF93CF93D3
:1023C000CDB7DEB7E8970FB6F894DEBF0FBECDBF2E
:1023D00080E090E0A0EFB1E48DAB9EABAFABB8AFC7
:1023E0006DA97EA98FA998AD20E030E04AE755E4B9
:1023F0000E941F02DC01CB0189AB9AABABABBCAB3B
:1024000069A97AA98BA99CA920E030E040E85FE3A4
:102410000E94790388232CF481E090E098AB8FA789
:102420003FC069A97AA98BA99CA920E03FEF4FE79B
:1024300057E40E94190318164CF56DA97EA98FA9BF
:1024400098AD20E030E040E251E40E941F02DC0140
:10245000CB01BC01CD010E944900DC01CB0198AB4E
:102460008FA70FC080E991E09EA78DA78DA59EA59F
:102470000197F1F79EA78DA78FA598A9019798AB13
:102480008FA78FA598A9009769F714C069A97AA9A1
:102490008BA99CA90E944900DC01CB0198AB8FA7B6
:1024A0008FA598A99CA78BA78BA59CA50197F1F751
:1024B0009CA78BA782E00E94C00F80E090E0A0E87C
:1024C000BFE38FA398A7A9A7BAA76FA178A589A5ED
:1024D0009AA520E030E04AE755E40E941F02DC01A3
:1024E000CB018BA39CA3ADA3BEA36BA17CA18DA1AB
:1024F0009EA120E030E040E85FE30E94790388235A
:102500002CF481E090E09AA389A33FC06BA17CA149
:102510008DA19EA120E03FEF4FE757E40E941903F1
:1025200018164CF56FA178A589A59AA520E030E092
:1025300040E251E40E941F02DC01CB01BC01CD014D
:102540000E944900DC01CB019AA389A30FC080E956
:1025500091E098A38F8F8F8D98A10197F1F798A3A1
:102560008F8F89A19AA101979AA389A389A19AA182
:10257000009769F714C06BA17CA18DA19EA10E9458
:102580004900DC01CB019AA389A389A19AA19E8F5E
:102590008D8F8D8D9E8D0197F1F79E8F8D8F88E2A7
:1025A0000E94C00F80E090E0A0E8BFE3898F9A8F7F
:1025B000AB8FBC8F698D7A8D8B8D9C8D20E030E048
:1025C0004AE755E40E941F02DC01CB018D8B9E8BF4
:1025D000AF8BB88F6D897E898F89988D20E030E030
:1025E00040E85FE30E94790388232CF481E090E0C7
:1025F0009C8B8B8B3FC06D897E898F89988D20E065
:102600003FEF4FE757E40E94190318164CF5698D08
:102610007A8D8B8D9C8D20E030E040E251E40E9469
:102620001F02DC01CB01BC01CD010E944900DC018D
:10263000CB019C8B8B8B0FC080E991E09A8B898BAF
:1026400089899A890197F1F79A8B898B8B899C8963
:1026500001979C8B8B8B8B899C89009769F714C0A1
:102660006D897E898F89988D0E944900DC01CB019C
:102670009C8B8B8B8B899C89988B8F878F85988976
:102680000197F1F7988B8F878CE00E94C00F81E053
:102690000E94C00F86E00E94C00F80E090E0A0E89A
:1026A000BFE38B879C87AD87BE876B857C858D85D7
:1026B0009E8520E030E04AE755E40E941F02DC01DD
:1026C000CB018F839887A987BA876F8178858985A1
:1026D0009A8520E030E040E85FE30E947903882398
:1026E0002CF481E090E09E838D833FC06F817885DC
:1026F00089859A8520E03FEF4FE757E40E94190350
:1027000018164CF56B857C858D859E8520E030E024
:1027100040E251E40E941F02DC01CB01BC01CD016B
:102720000E944900DC01CB019E838D830FC080E9AC
:1027300091E09C838B838B819C810197F1F79C8333
:102740008B838D819E8101979E838D838D819E8158
:10275000009769F714C06F81788589859A850E94F2
:102760004900DC01CB019E838D838D819E819A83FC
:10277000898389819A810197F1F79A838983E89601
:102780000FB6F894DEBF0FBECDBFCF91DF91089595
:102790001F93DF93CF93CDB7DEB7E9970FB6F894C9
:1027A000DEBF0FBECDBF89AF81E061E00E945E0752
:1027B00081E160E00E945E0782E061E00E945E07C6
:1027C00089AD86958877182F166080E00E944908A9
:1027D000812B982F80E0692F0E94080882E060E03A
:1027E0000E945E0780E090E0A0E0B0E48DAB9EAB7D
:1027F000AFABB8AF6DA97EA98FA998AD20E030E04E
:102800004AE755E40E941F02DC01CB0189AB9AAB79
:10281000ABABBCAB69A97AA98BA99CA920E030E03D
:1028200040E85FE30E94790388232CF481E090E084
:1028300098AB8FA73FC069A97AA98BA99CA920E072
:102840003FEF4FE757E40E94190318164CF56DA9A6
:102850007EA98FA998AD20E030E040E251E40E94CB
:102860001F02DC01CB01BC01CD010E944900DC014B
:10287000CB0198AB8FA70FC080E991E09EA78DA7F1
:102880008DA59EA50197F1F79EA78DA78FA598A965
:10289000019798AB8FA78FA598A9009769F714C0E7
:1028A00069A97AA98BA99CA90E944900DC01CB01E6
:1028B00098AB8FA78FA598A99CA78BA78BA59CA544
:1028C0000197F1F79CA78BA782E061E00E945E0769
:1028D00080E090E0A0E8BFE38FA398A7A9A7BAA7DC
:1028E0006FA178A589A59AA520E030E04AE755E4D4
:1028F0000E941F02DC01CB018BA39CA3ADA3BEA34E
:102900006BA17CA18DA19EA120E030E040E85FE3B7
:102910000E94790388232CF481E090E09AA389A394
:102920003FC06BA17CA18DA19EA120E03FEF4FE7AE
:1029300057E40E94190318164CF56FA178A589A5D4
:102940009AA520E030E040E251E40E941F02DC0141
:10295000CB01BC01CD010E944900DC01CB019AA34F
:1029600089A30FC080E991E098A38F8F8F8D98A1E4
:102970000197F1F798A38F8F89A19AA101979AA344
:1029800089A389A19AA1009769F714C06BA17CA1C2
:102990008DA19EA10E944900DC01CB019AA389A3CD
:1029A00089A19AA19E8F8D8F8D8D9E8D0197F1F7B4
:1029B0009E8F8D8F89AD882F90E0880F991F880F8B
:1029C000991F880F991F8877182F166080E00E9442
:1029D0004908812B982F80E0692F0E94080882E027
:1029E00060E00E945E0780E090E0A0E0B0E4898FA4
:1029F0009A8FAB8FBC8F698D7A8D8B8D9C8D20E0EB
:102A000030E04AE755E40E941F02DC01CB018D8BC8
:102A10009E8BAF8BB88F6D897E898F89988D20E0D2
:102A200030E040E85FE30E94790388232CF481E0E2
:102A300090E09C8B8B8B3FC06D897E898F89988DB0
:102A400020E03FEF4FE757E40E94190318164CF5BA
:102A5000698D7A8D8B8D9C8D20E030E040E251E4D1
:102A60000E941F02DC01CB01BC01CD010E94490084
:102A7000DC01CB019C8B8B8B0FC080E991E09A8BA2
:102A8000898B89899A890197F1F79A8B898B8B8930
:102A90009C8901979C8B8B8B8B899C89009769F70C
:102AA00014C06D897E898F89988D0E944900DC0150
:102AB000CB019C8B8B8B8B899C89988B8F878F8587
:102AC00098890197F1F7988B8F8782E061E00E94E7
:102AD0005E0780E090E0A0EAB0E48B879C87AD873A
:102AE000BE876B857C858D859E8520E030E04AE73A
:102AF00055E40E941F02DC01CB018F839887A987D0
:102B0000BA876F81788589859A8520E030E040E832
:102B10005FE30E94790388232CF481E090E09E8398
:102B20008D833FC06F81788589859A8520E03FEF4E
:102B30004FE757E40E94190318164CF56B857C8506
:102B40008D859E8520E030E040E251E40E941F0226
:102B5000DC01CB01BC01CD010E944900DC01CB01AD
:102B60009E838D830FC080E991E09C838B838B8152
:102B70009C810197F1F79C838B838D819E810197C6
:102B80009E838D838D819E81009769F714C06F812C
:102B9000788589859A850E944900DC01CB019E8356
:102BA0008D838D819E819A83898389819A81019702
:102BB000F1F79A838983E9960FB6F894DEBF0FBECA
:102BC000CDBFCF91DF911F910895DF93CF9300D0B8
:102BD00000D0CDB7DEB789836A838A818031C0F4A3
:102BE0008981282F30E03C832B838B819C81009747
:102BF00031F02B813C812130310531F009C08A81CF
:102C000080580E94C00F04C08A8180540E94C00F67
:102C10000F900F900F900F90CF91DF910895DF9359
:102C2000CF93CDB7DEB762970FB6F894DEBF0FBE75
:102C3000CDBF998B888B6A8B1F861F860EC08F85B0
:102C4000282F30E088899989FC01E20FF31F8081E9
:102C50000E94C8138F858F5F8F879F858A899817F9
:102C600070F380E090E0A0E0B0E48B879C87AD87B4
:102C7000BE876B857C858D859E8520E030E04AE7A8
:102C800055E40E941F02DC01CB018F839887A9873E
:102C9000BA876F81788589859A8520E030E040E8A1
:102CA0005FE30E94790388232CF481E090E09E8307
:102CB0008D833FC06F81788589859A8520E03FEFBD
:102CC0004FE757E40E94190318164CF56B857C8575
:102CD0008D859E8520E030E040E251E40E941F0295
:102CE000DC01CB01BC01CD010E944900DC01CB011C
:102CF0009E838D830FC080E991E09C838B838B81C1
:102D00009C810197F1F79C838B838D819E81019734
:102D10009E838D838D819E81009769F714C06F819A
:102D2000788589859A850E944900DC01CB019E83C4
:102D30008D838D819E819A83898389819A81019770
:102D4000F1F79A83898362960FB6F894DEBF0FBEBF
:102D5000CDBFCF91DF910895DF93CF9300D000D006
:102D6000CDB7DEB78B836C838C81803160F58B812E
:102D7000882319F08B81813031F580E40E94C00FE7
:102D80001A820CC08A81882F90E0FC01EE53FF4F1D
:102D900080810E94C8138A818F5F8A838A818034F0
:102DA00088F380E80E94C00F8B816C810E94E5153A
:102DB000198206C089810E94C81389818F5F898327
:102DC00089818830B8F30F900F900F900F90CF91BA
:102DD000DF910895DF93CF93CDB7DEB78CE160E04C
:102DE0000E945E078DE160E00E945E078EE160E078
:102DF0000E945E078FE160E00E945E07CF91DF9145
:102E00000895DF93CF93CDB7DEB72F970FB6F89421
:102E1000DEBF0FBECDBF1F8689C08F85882F90E093
:102E2000FC01EE5FFE4F808161E00E945E0780E062
:102E300090E0A0E2B1E48B879C87AD87BE876B856D
:102E40007C858D859E8520E030E04AE755E40E9430
:102E50001F02DC01CB018F839887A987BA876F8116
:102E6000788589859A8520E030E040E85FE30E941C
:102E7000790388232CF481E090E09E838D833FC00A
:102E80006F81788589859A8520E03FEF4FE757E489
:102E90000E94190318164CF56B857C858D859E85DF
:102EA00020E030E040E251E40E941F02DC01CB014F
:102EB000BC01CD010E944900DC01CB019E838D83C2
:102EC0000FC080E991E09C838B838B819C8101976B
:102ED000F1F79C838B838D819E8101979E838D83E7
:102EE0008D819E81009769F714C06F8178858985EF
:102EF0009A850E944900DC01CB019E838D838D81E0
:102F00009E819A83898389819A810197F1F79A83B7
:102F100089838F85882F90E0FC01EE5FFE4F8081D2
:102F200060E00E945E078F858F5F8F878F8584307A
:102F300008F473CF2F960FB6F894DEBF0FBECDBF47
:102F4000CF91DF910895DF93CF93CDB7DEB72F9761
:102F50000FB6F894DEBF0FBECDBF1F86AFC08F8502
:102F6000882F90E0FC01EA5FFE4F8081982F9170DE
:102F70008CE1692F0E945E078F85882F90E0FC010D
:102F8000EA5FFE4F80818695982F91708DE1692FC1
:102F90000E945E078F85882F90E0FC01EA5FFE4F5C
:102FA000808186958695982F91708EE1692F0E9479
:102FB0005E078F85882F90E0FC01EA5FFE4F8081DD
:102FC000869586958695982F91708FE1692F0E943E
:102FD0005E0780E090E0A0E2B1E48B879C87AD873C
:102FE000BE876B857C858D859E8520E030E04AE735
:102FF00055E40E941F02DC01CB018F839887A987CB
:10300000BA876F81788589859A8520E030E040E82D
:103010005FE30E94790388232CF481E090E09E8393
:103020008D833FC06F81788589859A8520E03FEF49
:103030004FE757E40E94190318164CF56B857C8501
:103040008D859E8520E030E040E251E40E941F0221
:10305000DC01CB01BC01CD010E944900DC01CB01A8
:103060009E838D830FC080E991E09C838B838B814D
:103070009C810197F1F79C838B838D819E810197C1
:103080009E838D838D819E81009769F714C06F8127
:10309000788589859A850E944900DC01CB019E8351
:1030A0008D838D819E819A83898389819A810197FD
:1030B000F1F79A8389838F858F5F8F878F8588301B
:1030C00008F44DCF2F960FB6F894DEBF0FBECDBFDC
:1030D000CF91DF9108951F920F920FB60F92112496
:1030E0008F939F93AF93BF93EF93FF93DF93CF9310
:1030F000CDB7DEB7A8E3B0E0E8E3F0E0908181E08F
:1031000089278C93CF91DF91FF91EF91BF91AF9180
:103110009F918F910F900FBE0F901F9018951F9247
:103120000F920FB60F9211248F939F93AF93BF937B
:10313000EF93FF93DF93CF93CDB7DEB7A8E3B0E073
:10314000E8E3F0E0908182E089278C93CF91DF91D2
:10315000FF91EF91BF91AF919F918F910F900FBE13
:103160000F901F901895DF93CF93CDB7DEB70E94D5
:10317000180680E00E94EA081092740107C00E94BD
:103180000117809174018F5F8093740180917401A5
:103190008823ACF7F1CF2F923F924F925F926F92BC
:1031A0007F928F929F92AF92BF92CF92DF92EF92D7
:1031B000FF920F931F93CF93DF93CDB7DEB7CA1B58
:1031C000DB0B0FB6F894DEBF0FBECDBF09942A8883
:1031D000398848885F846E847D848C849B84AA842B
:1031E000B984C884DF80EE80FD800C811B81AA81B8
:1031F000B981CE0FD11D0FB6F894DEBF0FBECDBF83
:08320000ED010895F894FFCFE1
:1032080000000000000000000101010101010101AE
:103218000101010101010101030301010101010390
:10322800030100000101010101020304050607086A
:10323800090708092F0405062A0102032D63003D2A
:103248002B6D3A003700340031003B003800350060
:1032580032003B00380035003200390036003300B8
:10326800300000000000000000000000000000170F
:103278001C0000000007051F0000000000101013CC
:10328800060C00001008041E000000000609090FC3
:10329800000000000401011F00000C1C00080808C1
:0E32A80000001C1D1E1F0901030206040C0875
:00000001FF
